:10400000007F0020818300003182000091AE00001B
:104010007D8300007D8300007D8300007D830000A0
:104020000000000000000000000000007D83000090
:104030007D830000000000007D8300007D83000080
:104040000000000000000000000000000000000070
:104050000000000000000000000000000000000060
:104060000000000000000000000000000000000050
:104070000000000000000000000000000000000040
:104080000000000000000000000000000000000030
:104090000000000000000000000000000000000020
:1040A0000000000000000000000000000000000010
:1040B0000000000000000000000000000000000000
:1040C00010B5054C237833B9044B13B10448AFF352
:1040D00000800123237010BDD802002000000000E2
:1040E000F824010008B5034B1BB103490348AFF3A3
:1040F000008008BD00000000DC020020F824010060
:104100004308400003F0553300F0AA3018438308F9
:10411000800000F0CC3003F03333034318091B0157
:1041200003F0F03300F00F30184300BA7047FFFF80
:1041300030B5016802690D0185B004465059FFF79A
:10414000DFFF2A4401905068FFF7DAFF0290906881
:10415000FFF7D6FF0390D3686269A3610131B1FB19
:10416000F2F302FB1311216049B994F8203003B92E
:10417000A361236E03B19847012384F85C300C22BD
:1041800001A902480AF07BF905B030BDF802002011
:104190002C49F8B50D680A682B4C0B68D210A25C4C
:1041A0005C4204F0070403F0070358BF6342274C46
:1041B00042FA03F3226822F4384222F01802226005
:1041C000226C22F4415222F03002DB07226404F117
:1041D00040041CD51E4B1F4F13F8152003EB45035D
:1041E0001C325B7837F832201C331612360156FA2F
:1041F00082F237F8333004F5F864052644F822607B
:104200001A12120152FA83F3042244F823200B6895
:104210006024013393FBF4F204FB12330B6080B192
:10422000046874B1A36963B106F054FFE369C01A6E
:10423000A369984205D92046FFF77AFF06F04AFFA6
:10424000E061F8BDF4020020F80200200000044004
:1042500094110100681601007FB51E4E06F03AFF6A
:104260003368C01A1C4B1B6898422BD91B4800F0BE
:10427000EFFD032828D11A491A4801230022C41847
:1042800014F8014C2243DC0603F1010304BF0A6069
:104290000431612B4FEA4202F1D1134C6368009361
:1042A000A3680193E3680293002501232046039548
:1042B0002560C4F810D06361FFF73AFFA56106F0EE
:1042C00009FF306004B070BD0849094806F0C0F924
:1042D000F5E700BF04030020080000201C040020B4
:1042E0000C0300200C0000200803002054120100E1
:1042F0003005002038B5094C09490A4806F034FA5F
:10430000002504F124002560C4E9065584F82050F6
:1043100004F0A4F984F85C5038BD00BF0803002005
:104320006C1101006C03002008B5044804F0D4FBB4
:104330000348BDE8084006F0CCB900BF2C030020BC
:104340006C03002070B54FF4E13188B02B482C4C41
:104350002C4E2D4D05F0A6FA002102A804F040FADB
:104360002A4BDFED2B0A9FED2B0A9DF808200194C4
:1043700000930021C3B204F1240004F0D7FA002214
:104380000C2104F1240004F0C3FB04F1240004F028
:1043900029FB04F1240004F04CFB1F4B19481A6858
:1043A0001E4B164C196800F083FD1D49134806F09A
:1043B0004FF9304600F04CFD032808D04FF4FA7056
:1043C00006F04AFE2946204606F02EF9F1E7154987
:1043D0000A4806F03DF91449084806F025F902A8F4
:1043E000084900F0CDFD02A9044806F03BF90F4949
:1043F000024806F02DF908B070BD00BF300500205E
:10440000080300201C040020051301009141000056
:104410000000484200401C4600000020040000202C
:1044200066120100B7140100711201009D12010013
:1044300008B50368002B02DA094809F028F88B4216
:1044400008D949008B4205D20029B6BF6FF000435E
:10445000016003600068BDE80840013008F0E8BF73
:104460000714010010B500220124416042F21071CE
:1044700002704470816080F88C4080F88D2080F854
:10448000942010BD10B50446406828B163781BB96C
:1044900040F2AC4108F0F6FF204610BD2DE9F04196
:1044A000074608460E4690460AF0AEFD7C68A042DC
:1044B00005460DD8241A44453F6828BF44464DB1EF
:1044C0002A463146381909F0CBFF18B1631E24B9CA
:1044D0004FF0FF342046BDE8F0811C46EFE703466D
:1044E00053F8080B984201D008F0C2BF70472DE97D
:1044F000F0470D461C46416833B9914238BF4FF032
:10450000FF321046BDE8F087914220D9D0F80080F4
:1045100095F9007008EB020008EB01068A1AC3F156
:104520000109A24213D319EB020210D0394609F057
:1045300047FF824658B12246294609F091FF10B93B
:10454000AAEB0802DDE70AF10100321AE9E74FF0B1
:10455000FF32D6E7F8B50646456808460F460AF02A
:1045600053FDA842024628BF2A46044622B13946D6
:10457000306809F075FF00B9281BF8BD012A30B476
:1045800004D191F90030037030BC7047002AFBD091
:1045900030BC09F074BFFFFF73B505460E4619B96C
:1045A00012B10D4808F070FF941B0F2C019406D92E
:1045B000002101A8FFF73CFF019B2860AB60224669
:1045C00031462868FFF7DAFF019B2A686B600021FB
:1045D000D15402B070BD00BFDD13010038B500F149
:1045E0000803044603600D4649B108460AF00CFD75
:1045F0002A1820462946FFF7CFFF204638BD4FF046
:10460000FF32F6E7F8B500F108040460D1E9005480
:10461000A242064604D923460649074808F03AFF55
:10462000A918A21A9A4294BF8A18CA18FFF7B4FFB1
:104630003046F8BD1F1401003A14010038B54C682B
:10464000A242054604D923460349044808F022FF44
:10465000FFF7D8FF284638BDC81301003A140100FF
:104660002DE9F043324E334D337887B004460F4680
:104670001BB10023337001232B7095F80080B8F133
:10468000010F07D04FF0000416D3B8F1020F41D04C
:104690002C7011E04346002227493846FFF727FFD8
:1046A00000228146434625493846FFF720FFB9F1ED
:1046B000FF3F024604D10024204607B0BDE8F08346
:1046C000431CF8D04B4639466846FFF7B7FF0098C1
:1046D00009F025FE002814DC606803681B69984710
:1046E00020B1606803685B699847F5E7012434707E
:1046F00028703A6800237B6068461370FFF7EFFE6E
:10470000DAE70F4B043018600E4B00241C600223C4
:104710002B70EEE70B4A136801331360084A1268E6
:104720009342C8D101232C7033701C46C4E700BFEC
:104730006C00002080030020691301003722010073
:104740007C030020780300202DE9F34102684668CD
:1047500000F108039A4204460F4606F1010504D011
:1047600081688D4215D9019503E00F2D11D901956E
:104770000F2101A8FFF75CFE80461EB1324621687A
:10478000FFF7FCFE2046FFF7AAFE019BC4F800805D
:10479000A36023689F552368656000225A5502B0C4
:1047A000BDE8F081F7B5024604460D4651F8080B06
:1047B00052F8083B814215D020609A426A686260D4
:1047C000AA6818BFA668A26008BF002343B12B6087
:1047D000AE602A68002320466B60137003B0F0BD02
:1047E0002960F6E7AC42F4D09A426E6814BFA16823
:1047F0000F218E420BD902A840F8046DFFF718FE76
:1048000007462046FFF76BFE019B2760A36026B199
:10481000324629682068FFF7B1FE236866600022EF
:104820009A55D6E72DE9F04F0446D0F8900087B0AE
:104830008946154628B194F8943013B15F4905F0C4
:10484000F3FE06F047FC00268246374600E00126CC
:10485000DFF888B106F03EFCA368A0EB0A0098429E
:1048600000D27EB394F88C3013B1284600F018FAC9
:104870000123D4F8900084F88C30002384F88D3024
:1048800048B194F8943033B14D4905F0CDFED4F8D9
:10489000900005F0D7FED4F8900078B1494905F0B2
:1048A000C3FE2968D4F8900005F0D2FE002F00F076
:1048B00083804549D4F8900005F0CAFE384607B019
:1048C000BDE8F08F606803681B6998470028C1D075
:1048D000606803685B6998474FFA80F8414628464C
:1048E000FFF732FFD4F8900028B194F8943013B158
:1048F000414605F09DFE94F88D80B8F1000F1AD066
:1049000029462046FFF7ACFE80460028DAD0002278
:1049100084F88D206B688BB3043B29466846FFF70B
:1049200071FE69462846FFF73DFF6846FFF7D7FD51
:1049300046464746C6E74FF0FF3224492846FFF770
:10494000ADFD411C02461BD06B68063B4246294622
:104950006846FFF773FE69462846FFF723FF68465F
:10496000FFF7BDFD1A494846FFF7F4FD30B149464F
:10497000284600F0ADF900283FF469AF012664E74E
:1049800014492846FFF78AFD431C024602D06B6893
:10499000043BDBE759462846FFF780FD013091D004
:1049A0006B684246073B29466846FFF747FE684664
:1049B000FFF795FD47464BE707497BE79813010052
:1049C000B2130100BC130100491301009E13010042
:1049D000A513010022130100571301002713010042
:1049E00008B42DE9F34309AE136856F8049B00F1AF
:1049F0000C05884600215160044619701746284668
:104A0000802209F060FD32464946284601960AF0A8
:104A1000B9FBD4F89000B0B105F014FE1349D4F8F6
:104A2000900005F001FED4F8906033682846D3F872
:104A300004900AF0E9FA294602463046C847D4F8FD
:104A4000900005F0FFFD284666680AF0DDFA294669
:104A50000246304605F014F83A4641462046FFF734
:104A6000E1FE02B0BDE8F04301B070478E130100D3
:104A700010B50446406890B010B3237803BB0368B8
:104A8000DB69984701230AAA0E49237004A8FFF79F
:104A9000A5FD60680368DB68984703AA0A490AA86D
:104AA000FFF79CFD094B009304AA094B09480AA98A
:104AB000FFF796FF0AA8FFF712FD04A8FFF70FFD06
:104AC00010B010BDB71401006B1301007B1301007F
:104AD000431F01008403002001490248FFF7C2BCC4
:104AE000880E0020840300200148FFF7CBBC00BFE4
:104AF0008403002008B5036813F8010C09F023FCB7
:104B0000B0FA80F0400908BD08B5007809F01BFC38
:104B1000B0FA80F0400908BDF8B515464268521A4F
:104B2000521B04460B460AD04DB106684F19012AA4
:104B300006EB010006EB070108D1F257F254636857
:104B40005D1B2368656000225A55F8BD09F0A2FC80
:104B5000F5E770B503684668CD1A33449A420446B7
:104B600005D1002345600B702068284470BD521A9F
:104B70002946FFF7D1FFF7E72DE9F843D0E9008692
:104B800007464FEAA6094546B9F1000F2C4616DD47
:104B90002846FFF7B9FFF8B96C1C2046FFF7B4FFB1
:104BA000D0B9AC1C2046FFF7AFFFA8B9EC1C2046DB
:104BB000FFF7AAFF043578B909F1FF39E4E7464465
:104BC000731B022B15D0032B0DD0012B03D12046D4
:104BD000FFF79AFF00B93446224641463846FFF7B0
:104BE000B8FFBDE8F8832846FFF78EFF0028F3D111
:104BF00001342046FFF788FF0028EDD10134E6E7B5
:104C00002DE9F341D0E9007506464FEAA5083D4479
:104C1000B8F1000F2C461ADD01A80195FFF76AFFD5
:104C200018BB6C1E01A80194FFF764FFE8B9AC1E25
:104C300001A80194FFF75EFFB8B9EC1E01A801942A
:104C4000FFF758FF043D80B908F1FF38E0E7EB1BA0
:104C5000022B1CD0032B12D0012B05D102A840F847
:104C6000044DFFF747FF00B93C46D6E90023214633
:104C70001A443046FFF76DFF02B0BDE8F08102A88C
:104C800040F8045DFFF736FF0028EED16C1E02A845
:104C900040F8044DFFF72EFF0028E6D1013CDDE788
:104CA00010B50446FFF7ACFF2046BDE81040FFF703
:104CB00063BFFFFF10B543689942144604D90A4602
:104CC0000248214608F0E6FB084610BD3A140100F0
:104CD00070B50E4686B00446FFF74EFF7568316822
:104CE0002B4600222046FFF702FCA8B90B4A2946B2
:104CF0002046FFF7DFFF4FF0FF33024621466846AC
:104D0000FFF780FC69462046FFF74CFD6846FFF739
:104D1000E6FB012006B070BD0020FBE7C8130100D0
:104D200008B50368002B02DA094808F0B0FB8B4293
:104D300008D949008B4205D20029B6BF6FF0004365
:104D4000016003600068BDE80840013008F070BBF6
:104D50000714010073B54CF250330025036000F1D5
:104D60002003C0E90635012600F138030446C0E9F6
:104D70000C35C0E90355456180F8205080F8385063
:104D800004230096A822C021483005F023FB3346B7
:104D90000096A822C02104F1600005F01BFBFF2350
:104DA00000951A46194604F1780005F013FB2046D9
:104DB0006560258102B070BD10B504466830FFF70C
:104DC0008EFB04F15000FFF78AFB04F13800FFF777
:104DD00086FB04F11800FFF782FB2046FFF77FFBFC
:104DE000204610BD73B505460E4619B912B10D48DF
:104DF00008F04AFB941B0F2C019406D9002101A84E
:104E0000FFF78EFF019B2860AB6022463146286881
:104E1000FFF7B4FB019B2A686B600021D15402B0FC
:104E200070BD00BFDD13010038B500F10803044672
:104E300003600D4649B108460AF0E6F82A182046F4
:104E40002946FFF7CFFF204638BD4FF0FF32F6E787
:104E500010B54FF4E1318CB01148FFF709FE11494C
:104E60006846FFF7E1FF104906A8FFF7DDFF0F4B8B
:104E70000B486A4606A9FFF7B3FD044606A8FFF7EC
:104E80002EFB34B1012006F0E7F8009809F047FA4C
:104E9000C4B26846FFF723FB20460CB010BD00BF2C
:104EA00084030020B7140100201501002C15010017
:104EB000F0B591B007460D4604A82849284C16467F
:104EC000FFF7B2FF4FF4E1312648FFF7D1FD264945
:104ED0000AA8FFF7A9FF01230193244B00930AA915
:104EE000234B204804AAFFF77BFD0AA8FFF7F7FA37
:104EF00020490AA8FEB9FFF797FFCDE900451E4BF0
:104F0000184804AA0AA9FFF76BFD04460AA8FFF790
:104F1000E6FAE4B106F0DEF842F20F75044606F058
:104F2000D9F8001BA84212D83846FFF791FF032892
:104F3000F5D104460CE0FFF777FFCDE90156009468
:104F40000E4B084804AA0AA9FFF74AFDDDE704242E
:104F500004A8FFF7C4FA204611B0F0BDB714010051
:104F60000915010084030020B8140100F1140100A8
:104F7000EA140100FE1401007E1401001615010060
:104F80002DE9F0434FF4E1318FB004463548364FF8
:104F9000364EDFF8F480FFF76BFD354902A8FFF7C6
:104FA00043FF002300931A461946204605F012FAE3
:104FB0003225642006F050F8394608A8FFF734FF80
:104FC0000096434602AA08A92648FFF709FD814634
:104FD00008A8FFF784FAB9F1000F1DD0029809F074
:104FE0009EF901282DD1234908A8FFF71DFF0023B2
:104FF0000193214B009302AA204B1A4808A9FFF7FE
:10500000EFFC814608A8FFF76AFAB9F1000F03D058
:105010000299204605F0ABFA0023194600931A4680
:1050200008A805F0D7F908A9204605F0ADFA08B19F
:10503000013DBED102A8FFF752FA20460FB0BDE8ED
:10504000F083029809F06BF90228E5D10C4908A811
:10505000FFF7EAFE0B4B034802AA08A9FFF7C0FCC2
:10506000CFE700BF84030020B8140100C31401007F
:10507000B7140100551501005D150100EA14010087
:105080003C15010047150100431F01000148FFF7CF
:1050900061BE00BF1C04002070B50C4C04F1300050
:1050A000FFF71DFA04F11800FFF719FAD4E90356C7
:1050B000AE4204D02846FFF77FFE8035F8E7E0686F
:1050C00018B1BDE8704008F0D3B970BD1C040020D1
:1050D00000207047036813B962B6BFF36F8F704743
:1050E00008B505F0A3FF002008BD272070477047D2
:1050F00037B5FFF7FCFF01210D2005F011FF00215E
:105100000D2005F025FF68460722032108F020F94D
:10511000BDF800301C4CC3F38413012568460722F8
:105120000521E55408F014F9BDF80030C3F38413E9
:10513000684607220621E55408F00AF9BDF8003058
:10514000C3F38413684607220921E55408F000F9E7
:10515000BDF80030C3F38413684607220A21E554E2
:1051600008F0F6F8BDF80030C3F3841307220B21D2
:105170006846E55408F0ECF8BDF80030C3F384133A
:10518000E55403B030BD00BFBA040020F0B44B7842
:105190008E780A78CD780F4C1B013603A75C0C790A
:1051A0004A7906F440562D02DBB205F440713343D0
:1051B00007F003050B43D201E101074C2B43C9B2B1
:1051C000064DA171D2B26380227205600020F0BC4E
:1051D000704700BFA017010000420440544457002C
:1051E000024B0020FF2218701A70704700420440E2
:1051F00070B5836A84B004460E46ABB193E80700ED
:1052000001AD85E807006168E26A097819601E71DE
:105210009A601846636A9847A36A1BB195E807002D
:1052200083E8070004B070BD01AD2B46EBE700BF7B
:1052300030B4EFF30383103B5BB203F1C0011C4AAF
:105240001C4C52F821006FF3104042F8210054F832
:105250002330D3E906218A4212D018699C6868B1CC
:1052600093F820500F2D18D9616840F82210D969A1
:1052700001328A429A6103D030BC70476068F7E718
:105280005B680D4993F90330012203F01F005B09AD
:10529000824041F8232030BC7047072D03D8217984
:1052A0008154D969E4E7A48820F81240E0E700BF00
:1052B00000600040241C002000E100E0F0B4EFF3A7
:1052C0000383103B5BB203F1C0022849284C51F81C
:1052D00022006FF3104041F8220054F823305C683C
:1052E0005A69206ADD6910B1407801280FD0AA42BE
:1052F0000BD0D3E9020129B193F820400F2C16D925
:1053000051F82210416001325A61F0BC70476E1EA4
:10531000964214D021690029E9D094F90310154C64
:1053200001F01F064909B04044F82100DFE7072CCF
:1053300095BF895C31F8121001718180E3E794F91F
:10534000036006F1C0077409A40051F827C004F1F6
:10535000604404F5614406F01F06B0406FF3104C42
:1053600041F827C0C4F880012060C0E70060004019
:10537000241C002000E100E070B4EFF30383103B35
:105380005BB2304A304C03F1C00152F821006FF398
:10539000104042F8210054F823008268D278920726
:1053A00005D54268527A012A01D070BC704759096C
:1053B00020310122254C03F01F0302FA03F344F8C5
:1053C0002130BFF34F8FBFF36F8F436893F90230E3
:1053D000002B2EDB5909203103F01F0302FA03F3DF
:1053E00044F82130BFF34F8FBFF36F8FD0E9011422
:1053F000237891F902106FF386130029237014DBD0
:1054000001F1C0050F4C4B099B0054F8256003F1D6
:10541000604303F5614301F01F018A406FF31046BA
:1054200044F82560C3F880211A60012170BCFFF7A1
:10543000DFBE826813786FF386131370012170BC8E
:10544000FFF7D6BE00600040241C002000E100E011
:10545000F8B5EFF30384103C314B64B253F8246089
:10546000736893F90230002B42DB5A092032012085
:105470002C4903F01F0300FA03F341F82230BFF375
:105480004F8FBFF36F8FD6E90112137891F9021095
:105490006FF386130029137015DB01F1C007224D4D
:1054A0004B099B0055F827C003F1604303F56143A6
:1054B00001F01F0100FA01F16FF3104C45F827C00D
:1054C000C3F880111960D5780023EDB2D3702A0794
:1054D00021D4EB0712D405F01405142D16D0C034D6
:1054E000114B53F824206FF3104243F82420F8BDE9
:1054F000B26813786FF386131370E4E70421304623
:1055000005F01405FFF774FE142DE8D1304608218C
:10551000FFF76EFEE3E705213046FFF769FED8E7A7
:10552000241C002000E100E00060004070B50D4642
:10553000016A8B7803F07B038B700378044623B3F6
:10554000C0E90352E369186988B122697AB1A37886
:10555000816800688E68E16803F00303013B22FA6A
:1055600003F300229BB22261B04768B9216A8B78AD
:1055700043F080038B70207878B9A37803F003039D
:10558000022B0CD02B78CB7070BD837803F0030313
:10559000D21A2B44C0E90332D4E7002070BD2B8817
:1055A00043F47E43CB8170BD036A9A7870B4D2B263
:1055B000054602F00B004E780C7898700020E860E9
:1055C0008D785D701D7866F301051D70C97899743A
:1055D000DD7904F05C0105F0A304214302F07B02B5
:1055E000D97170BC9A707047F0B5846A85B0064670
:1055F0008C461746BCB194E80F006D4685E80F0055
:10560000F269F36A12782260E360C4F808C0277177
:105610002046736A9847B46A1CB195E80F0084E885
:105620000F0005B0F0BD6D462C46E9E770B5D0E936
:10563000072592F905202F490446500901232030FF
:1056400002F01F02002603FA02F26660AE7041F813
:105650002020BFF34F8FBFF36F8FE26992F90B20C9
:105660005009203002F01F0203FA02F241F8202014
:10567000BFF34F8FBFF36F8FE26992F90720500994
:10568000203002F01F0203FA02F241F82020BFF39B
:105690004F8FBFF36F8FE26992F9092050092030D4
:1056A00002F01F02934041F82030BFF34F8FBFF349
:1056B0006F8FE369DA6822B1936810681B6A9847B4
:1056C000E3691B691BB19A681868136A9847EFF37E
:1056D0001082012383F31088E069074900784C6841
:1056E000C0F11F00834023434B604B6882F3108856
:1056F000002070BD00E100E0FC6F04402DE9F8439C
:105700000D4609780323CB4013F0010301F1007229
:1057100018BF1023037002F56052837852010121F3
:10572000026204466A78C56161F30103D5E9051098
:1057300061620021A370C4E90A1022B9DBB202221F
:1057400062F30103A37095F90B60674BA87A7209A5
:10575000203206F01F07012101FA07F743F82270F3
:10576000BFF34F8FBFF36F8F604A614F06F1C00CDC
:1057700003EB060852F82CE000016FF3104E42F8DC
:105780002CE0C0B288F8000395F9050047F82640E0
:105790004FEA501C0CF1200C00F01F0E01FA0EFE17
:1057A0002E7943F82CE0BFF34F8FBFF36F8F00F1DA
:1057B000C00C03EB000852F82CE036016FF3104EDA
:1057C00042F82CE0F6B288F8006395F9076047F8D4
:1057D00020404FEA561C0CF1200C06F01F0E01FA77
:1057E0000EFEA87943F82CE0BFF34F8FBFF36F8F05
:1057F00006F1C00C03EB060852F82CE000016FF331
:10580000104E42F82CE0C0B288F8000395F9090068
:1058100047F826404FEA501C00F01F060CF1200C00
:10582000B1402E7A43F82C10BFF34F8FBFF36F8F28
:1058300000F1C00C310152F82C600344C9B26FF37F
:10584000104642F82C6083F8001347F82040EB68BC
:10585000F3B15968266A0A68E7694FF4002C701D95
:10586000C2E900C094F800C0BCF1000F01D01136AD
:1058700056607E7836B9D67801270B3067F3051667
:105880005060D6709A68186813689847064640BBFF
:105890002B69002B2ED05968266A0A68E7694FF0F9
:1058A000006CF01CC2F800C0906094F800C0BCF11D
:1058B000000F01D00F3696607E7836B9D678012772
:1058C0000B3067F305169060D6709A6818681368F5
:1058D0009847064670B1EB681BB19A681868136A5E
:1058E00098473046BDE8F88300E100E000600040E2
:1058F000241C0020EFF31082012383F310889B49BE
:105900002E784868C6F11F06B34020EA03034B60B7
:105910004B6882F31088236A00229A701A715A72B7
:105920009A72DA725A83297840F20722CA40D20763
:1059300044BF4022DA7406221A772278E16972B1F4
:10594000C868013A002800F008810120120392B2D1
:10595000024342F006009882988A8242FCD1EE7897
:105960006A78A878F600032A46EA001600F0E2807A
:10597000002A0CBF4FF0E20E4FF0F20EED696A788C
:1059800095F802C02F7B2878F6B2D2014FEA4C1C62
:105990001E700CF0200C7F00D2B2861E07F00207AA
:1059A00042EA0C02012E4FF0000C83F806E05F7310
:1059B00083F808C040F2C8806E68D2B2DA71B2785B
:1059C0005A701F7896F801C032786CF301071F7087
:1059D000F6789E74DE7902F05C0206F0A30632438C
:1059E000DA7191F905C0624E0027C4E90377C4E972
:1059F00005770CF1C00200F0030056F822E067F3CF
:105A0000104E46F822E04FEA5C12920091F90B80AA
:105A100002F1604202F561420CF01F0E4FF0010CE2
:105A200008F1C0090CFA0EFEC2F880E1C2F800E0ED
:105A300056F8292067F3104246F829204FEA5812F9
:105A4000920091F907E002F1604202F5614208F02C
:105A50001F080EF1C0090CFA08F8C2F88081C2F8DC
:105A6000008056F8292067F3104246F829204FEAB3
:105A70005E12920091F9091002F1604202F5614252
:105A80000EF01F0E01F1C0080CFA0EFEC2F880E104
:105A9000C2F800E056F828E067F3104E46F828E018
:105AA0004A0992006D8902F1604202F5614201F0FB
:105AB0001F014FF6FF760CFA01F140F07000B5427D
:105AC000C2F880111160987025812DD0EFF31081FC
:105AD0008CF31088274A13681BB927484025C370E8
:105AE000C57013680133136081F31088218923483E
:105AF0000B0A1B0153FA81F150F8213023F00113F6
:105B000023F4404343F0040340F82130EFF31081C5
:105B1000012383F31088136813B11368013B1360EA
:105B2000136863B181F31088154B6360002630461B
:105B3000BDE8F88346F040064FF0F20E1EE70E4A2D
:105B40008020D370D070EDE7022808BF42F0100229
:105B5000FF26D2B25E70DA7143E7C869007A10405E
:105B6000000200F4706040F00100EFE6FC6F0440BA
:105B700000600040201C0020000D0440000804408C
:105B8000554943532DE9F04F9B46FF258024634B35
:105B90008BF802508BF80340614C1B6A2668614CFD
:105BA0009BF80050C3F302678BB0BE40C3F30233CF
:105BB00026FA03F300910992A3FB0412CDE9021225
:105BC00000266FF3820506931B0ACDE907068BF8C2
:105BD0000050204605930196099B834276DA9DF892
:105BE000203004930027504B049ADD5DC5F3400933
:105BF000C5F3800549EA050393425FD14B4B33F867
:105C00001780079B03FB08F8069BB3FBF8F4661E9E
:105C1000FF2E53D804FB08F4824621E0059AB4FB1A
:105C2000F2F27F2A02FB03F354D9002BB8BFFF33F3
:105C30001B12A3F5C333A03B002BB8BF5B429A45B0
:105C40004ADC9BF800309DF804208BF8032043F0D9
:105C50000403A4EB08048BF80030002E3AD0013E78
:105C60002246E317DDE9020108F09AF9A0F5C330F6
:105C7000A038009A00F5C333A033002ACED1002803
:105C8000B8BF4042824525DD274B9BF80110DA5D05
:105C90009BF800308BF80260C2F3000464F38613B3
:105CA00069F3041365F3C303C2F3C10262F3010194
:105CB0008BF80030009B8BF80110019301370D2FFA
:105CC00091D1089B1BB3099B984223DC00200BB0A9
:105CD000BDE8F08F5046F1E713498BF80260C85DCC
:105CE0009BF800100192C0F3000C6CF386119BF836
:105CF00001C069F30411C0F3C10065F3C30160F38F
:105D0000010C9A468BF800108BF801C099E701232B
:105D1000089361E703200BB0BDE8F08F00E001407D
:105D2000AC1C0020A0860100A8170100B8170100D4
:105D3000F0B4EFF30383103B5BB203F1C001324ACE
:105D4000324C52F821006FF3104042F8210054F811
:105D50002300C2690369126992B10BB1F0BC7047AC
:105D6000026A9378446A03F07F0343F0040300213E
:105D70009370C160002CF1D08022F0BCFFF734BCDE
:105D8000026A002BEDD00678E6B1D48AC4F304246D
:105D9000B4422DD28578C16805F0030C654609E050
:105DA0000F78D77301345B1B2944B442C0E9031355
:105DB0001ED223B3BCF1020FF2D10F8847F47E4705
:105DC000D781EFE78178C46801F00305022D0AD07E
:105DD0002578D57001F003029B1A2244C0E9032301
:105DE000002BBBD1BCE7258845F47E45D581F1E782
:105DF00011796FF3C7111171002BAFD1B0E7117991
:105E000063F3C7111171ACE700600040241C00204F
:105E100030B583B0EFF30383103B5BB203F1C001F5
:105E2000554A564C52F821006FF3104042F82100B9
:105E300054F82340E369DB6873B1A36963B1636A13
:105E40000021C4E90511002B70D02046012203B0C7
:105E5000BDE83040FFF7C8BB22894FF6FF739A4276
:105E600020D0EFF31081012383F31088444B1A688C
:105E70001AB944484025C270C5701A6801321A60C8
:105E800081F3108822894049130A1B0153FA82F2D8
:105E900051F8223023F0011323F4404343F005036B
:105EA00041F822302278236A002A41D0D98AC806D4
:105EB00013D01B8AC3F308030193A369002B41D1BC
:105EC000636A2BB1042201992046FFF78DFB2278EB
:105ED0002AB1236AD98AC906E6D1BE221A7123895A
:105EE0004FF6FF72934221D01A0A120152FA83F23E
:105EF000254951F8223023F0011323F4404343F0A5
:105F0000040341F82230EFF31082012383F3108859
:105F10001B4B196811B11968013919601B681BB94D
:105F200018498020CB70C87082F3108803B030BD50
:105F3000A17801F003010229BBD05B790193A36929
:105F4000002BBDD0A278606902F0030201A908F01D
:105F500096FAD4E90521A37803F003031A44C91A79
:105F6000C4E9052129B9636A1BB101222046FFF764
:105F70003BFB2278ACE700BF00600040241C0020FF
:105F8000201C0020000D04400008044010B5EFF371
:105F90000384103C0B4B64B253F82400D0E9082171
:105FA000937803F07B03937019B102220021FFF76D
:105FB0001BFBC034044B53F824206FF3104243F80A
:105FC000242010BD241C00200060004070B5EFF3B9
:105FD0000384103C164B64B253F824000278036A21
:105FE0003AB9827802F00302022A02D05979C9B282
:105FF00002E0198AC1F308011D79EDB2EE0605F041
:10600000380204D51D7FED0758BF42F040021D79CC
:10601000466A05F0C7051D710EB1FFF7E5FAC034F9
:10602000044B53F824206FF3104243F8242070BD32
:10603000241C00200060004070B5436A84B0044610
:106040000E46ABB193E8070001AD85E80700616833
:10605000A26A097819601E719A601846236A9847E7
:10606000636A1BB195E8070083E8070004B070BDC0
:1060700001AD2B46EBE700BF10B4EFF30383103BF9
:106080005BB203F1C001144A144C52F821006FF3C3
:10609000104042F8210054F823305A69D9698A42E5
:1060A00006D2D3E90240A8B1805CE07001325A61A7
:1060B000914202D05DF8044B70471A69002AF9D169
:1060C0009A685DF8044B937803F07B0343F0040374
:1060D00093707047E070E9E700600040241C0020E6
:1060E00010B4EFF30383103B5BB203F1C001174A16
:1060F000174C52F821006FF3104042F8210054F879
:1061000023305A69D9698A4206D2D3E90240D0B114
:10611000805CE07001325A619A698A4207D29868BD
:1061200019694079541C9C618854D3E90621914235
:1061300006D19A68937803F03B0343F0040393700D
:106140005DF8044B7047E070E4E700BF006000407A
:10615000241C002010B5EFF30384103C64B20A4BFA
:1061600053F824008268937803F0030393700121AD
:10617000FFF762FFC034054B53F824206FF3104241
:1061800043F8242010BD00BF241C00200060004004
:1061900010B5EFF30384103C64B20B4B53F82400AA
:1061A00083689A7802F003029A70842219791A712E
:1061B0000421FFF741FFC034044B53F824206FF350
:1061C000104243F8242010BD241C00200060004031
:1061D00003685B69A3B190F82D2070B502F0FF054C
:1061E0006AB904469A6818689668238CA1692A4699
:1061F000B047E26925620123626284F8333070BDE2
:10620000704700BFF0B5856B83B004460F4635B3C9
:1062100095E803006E4686E803002368E16B5A693F
:1062200029602F713AB194F82D1021B99368106844
:106230001B69984723689B6933B194F82D201AB1E4
:106240009A68186813699847636B28469847A36B48
:106250001BB196E8030083E8030003B0F0BD6E466F
:106260003546DAE7EFF30383103B5BB2C033044AF1
:1062700052F823106FF3104142F82310704700BF0B
:1062800000600040F8B5EFF30383103B5BB2C0330E
:10629000624A52F823106FF3104142F82310EFF3D3
:1062A0000383103B5BB25E4A52F8234021690B7BAB
:1062B00013F001032CD194F82C2094F82A0090427A
:1062C00016D094F82D300BB1022A43D02046FFF7A8
:1062D0007FFF236994F82820DA7094F82B2094F833
:1062E0002C30013A013384F82B2084F82C30F8BD8F
:1062F00094F8332002F0FF054ABB236ABBBB94F835
:106300002E3053B352220123CA7284F83030F8BDC4
:1063100094F82D309BB194F8313083B9636AA26947
:106320004979D154D4E9082394F82E10013A013365
:10633000C4E90823A1B923695422DA72F8BD002008
:1063400001225423206284F82F20CB72F8BD84F8F8
:106350003330F8BD5223CB72F8BD5423CB72F8BD55
:10636000226952210123D17284F83030F8BD94F8AB
:106370002D20002A32D094F83120002A37D022680C
:1063800084F831505069002841D09269002A3ED0EB
:10639000E669022E3BD9936810689F68A269B31E14
:1063A000F4268E709BB22946B8472268E369526989
:1063B000916810688E68023B9BB22A462946B04716
:1063C000E3692169023B0220C4E90803012284F841
:1063D00033200023FF228B72CA70F8BD626AA56960
:1063E000501C013BAA5CC4E90830CA70F5E7636A37
:1063F000A2694979D154D4E90832013B0132012B19
:106400002169C4E9083204D0FF22CA70E5E7012BF4
:10641000DFD82023FF228B72CA70DEE700600040C5
:10642000241C002038B5EFF30383103B5BB2374ADE
:1064300052F823402269D37A6FF3C303D37294F8DE
:106440002F30002B39D103F0FF0094F82A1094F874
:106450002C30994220D1236A8BB994F82D1094F8EE
:10646000300000290CBF03210221C8BBF023D372E6
:10647000937803F0CF0393702046FFF7C3FEEFF34A
:106480000383103B5BB2C033214A52F823106FF3F1
:10649000104142F8231038BDB3B9012924D094F833
:1064A00029000021D172D07094F82B200133013AD9
:1064B00084F82C3084F82B20E1E7F0232046D372B7
:1064C0000121FFF79FFEDAE794F82D5005F0FF0158
:1064D00045B1022BE5D194F8290040F00100E0E736
:1064E000D372C9E70846DCE72046FFF771FE94F84F
:1064F0002A30012B05D194F82800226994F82C3019
:10650000CFE7226994F82C30C9E700BF241C002093
:1065100000600040F0B583B0EFF30384103C64B238
:10652000144B53F82450EF68BFB16A682B6992F995
:106530000D20121B18BF0122CBB193E803006E4659
:1065400086E80300696959601A701846B8472B69D4
:106550001BB196E8030083E80300C034064B53F8F0
:1065600024206FF3104243F8242003B0F0BD6E46A0
:106570003346E7E7241C002000600040EFF303836C
:10658000103B5BB20649074A51F823100120C03383
:10659000087252F823106FF3104142F8231070472D
:1065A000241C002000600040C8B20123834098B240
:1065B00052B10023090A490101F1804101F580210E
:1065C00003438B60002070471B041046F2E700BFB6
:1065D000F8B500283BD009681E4F4FF0000C01EBC6
:1065E000C00066464FF0010E8D8840F2024295428F
:1065F0004FF000030BD10C680EFA03F204F0B8540C
:10660000D2B2B4F1807F0CBF164342EA0C0C0133C6
:10661000032B06D037F813209542ECD00133032B1F
:10662000F8D108318142DFD16FEA0C0C5FFA8CF4AB
:10663000012001F05DFE084B93F8BB241643264071
:1066400083F8BB640120BDE8F84001F021BE064696
:10665000FF24EDE7D417010000E00140F0B585B05C
:1066600004AB02A843F80C0D01260C46304619462F
:106670001546ADF80C400292ADF80060FFF7A8FF98
:10668000EFF3108186F310881B4B1A681AB91B4868
:106690004026C270C6701A6801321A6081F31088F1
:1066A000200AEA03E4B24FEA00100BD50119144A9C
:1066B00052F8217025F480366FF3104742F82170AC
:1066C00042F8216020440E4A42F82050EFF3108235
:1066D000012181F31088196811B119680139196015
:1066E0001B681BB905498020CB70C87082F31088E5
:1066F000002005B0F0BD00BF201C0020000D0440AC
:1067000000080440F0B5C36A85B005460E4617463A
:106710009BB193E8070001AC84E807002A6B1A607C
:106720005F601E721846AB6A9847EB6A1BB194E82B
:10673000070083E8070005B0F0BD01AC2346EDE794
:1067400070B50123856880F820300226B323EB71F1
:1067500080F821606B79C26904466FF300036B71A6
:106760000D46FFF7CFFFA368DE705A7942F00102B1
:106770005A7194F82120012A05D094F821200AB9F1
:10678000052D04D070BD042D01D0082DF5D194F84D
:106790002320002AF6D194F821201AB95A7A02F05F
:1067A000F3025A72BF210122D97184F8232070BDEF
:1067B000836810B4A0220024DA7180F8204080F8A9
:1067C00022405A7964F300025A7190F824206AB981
:1067D000DF249F221C701A7000240223C26980F8F3
:1067E0002130C4615DF8044BFFF78CBF5C72F3E7A6
:1067F00030B583B0EFF30383103B5BB2C033424A42
:1068000052F823106FF3104142F82310EFF3038383
:10681000103B5BB23D4A52F8234094F82220A36813
:10682000AAB9012284F82220DA7CD2B28DF80520A0
:106830009DF8052012F0010F5A7A14BF02F0F702FA
:1068400002F0F3025A72AC22DA7103B030BD94F850
:1068500020204AB91B7A13F0080F0CBF042108212D
:106860002046FFF76DFFA368226962B1A1698A42E1
:106870001DD0E268DB7C481CA0615354E3690133FE
:10688000E36103B030BDD97CC9B28DF806109DF824
:106890000610197941F010011971197941F00801B8
:1068A0001971197962F30411197103B030BD022511
:1068B00084F821505979E2696FF30001597120463B
:1068C0000621FFF71FFFA3682169DD705A7942F0A6
:1068D00001025A7191B9DA7CD2B28DF807209DF885
:1068E00007201A7942F010021A711A7942F0080250
:1068F0001A711A7961F304121A71A6E7A269E168A4
:10690000DB7C501CB8E700BF00600040241C002066
:1069100038B5EFF30383103B5BB2C033224A52F821
:1069200023106FF3104142F82310EFF30383103B61
:106930005BB21E4A52F8234094F8203093B194F889
:10694000213003F0FF0263B9A3692069A16898426E
:106950000DD0E269E0680132C05C88740133C4E99B
:10696000063238BD05212046FFF7EAFEE7E7236837
:106970000D4893F90E3003F1C004002B50F8245059
:1069800062F3104540F8245009DB5A09603203F0E5
:106990001F030120064C00FA03F344F82230CB79A0
:1069A00043F04003CB7138BD00600040241C002040
:1069B00000E100E038B5EFF30383103B5BB2204AFF
:1069C00052F82340A1680B79C3F38003BBB1CB79A4
:1069D0006FF38613CB71C02301E0013B02D0CA796B
:1069E0005206FAD4EFF30383103B5BB2C033154A6F
:1069F00052F823106FF3104142F8231038BD0225DE
:106A000084F821504879E26963F300004871072156
:106A10002046FFF777FEA168CD704B7943F0010364
:106A20004B7194F82130002BD1D1A369E269E06861
:106A30000132C05C88740133C4E90632C7E700BF85
:106A4000241C00200060004000B583B0EFF30383F6
:106A5000103B5BB2214A52F823008268537ADBB2C2
:106A600099072FD113F00C0F1FD0012380F8243089
:106A700090F82130012B2ED0026983699A4228D9DF
:106A8000C369013BC3610321FFF792FEEFF3038368
:106A9000103B5BB2C033124A52F823106FF310411F
:106AA00042F8231003B05DF804FBDB06EED5D37C7F
:106AB000DBB28DF807309DF80730D37903F0EF0390
:106AC000D371E3E7002380F824300121FFF770FE43
:106AD000DCE70321D8E70221D6E700BF241C002011
:106AE0000060004030B5836B83B004460A46ABB10A
:106AF00093E803006D4685E80300E16B19601A71A5
:106B00001846636B9847A36B1BB195E8030083E8B5
:106B10000300002384F82B3003B030BD6D462B46B4
:106B2000EBE700BF2DE9F04FD0F800800469D8F8FA
:106B30002450D8F804A095F800E095F801B0DFF8EB
:106B400068C1DFF86891DFF868811F2626705F272B
:106B5000DF26277026702F799DF9286047F0E0071F
:106B60002774EF7847F0E0076774AF789DF92450F9
:106B7000BEF1010F4FEA07170CBF4FF0050E4FF0A3
:106B8000040E07F070074EEA4B0E47F00807A77097
:106B90000CEB060BCA450CBF4FF0F7094FF0770915
:106BA0005FFA8EFE4FF0000AB327090184F803E074
:106BB000C9B284F8059006F1C00E84F806A0E7710A
:106BC000384F8BF8001348F8260057F82EB04FEADC
:106BD00056194FEA89096AF3104B09F1604947F8E1
:106BE0002EB009F561494FF0010E06F01F060CEBBF
:106BF000030B0EFA06F6C9F88061C9F8006003F1CC
:106C0000C0098BF800135E0948F8230057F829B033
:106C1000B60006F1604606F5614603F01F036AF30D
:106C2000104B0EFA03F347F829B00CEB0509C6F830
:106C30008031336005F1C00389F800136E0948F80C
:106C4000250057F82390B60006F16046944406F5F7
:106C500061466AF3104905F01F0547F823900EFAC4
:106C600005F502F1C009C6F8805135608CF80013B3
:106C700048F8220057F8291053099B0003F160439C
:106C80006AF3104147F8291003F5614302F01F022F
:106C90000EFA02F29F20C3F880211A602070BDE82E
:106CA000F08F00BF0060004000E100E040420F00B4
:106CB000241C0020C369026913B990F82C308BB1F1
:106CC00030B5044683B0A1B994F82630A16984F8A0
:106CD00028300023E36184F82C30B3232162D37180
:106CE00003B030BD90F82B30002BE9D1B323D37122
:106CF000704700680023D37190F9115090F90E206D
:106D0000417B90F90F30019590F9100000902046DA
:106D1000FFF708FF2269D7E710B483B0EFF30383CE
:106D2000103B5BB2C033474A52F823106FF3104157
:106D300042F82310EFF30383103B434A5BB252F84F
:106D4000233093F82D10DA69B1B9986919690128CF
:106D500003D9087940F040000871012A27D0CA7C85
:106D6000D2B28DF8072001229DF8071083F82D205C
:106D700003B05DF8044B7047002AF9D0032A1FD0F6
:106D8000022A23D0012A2BD019691A6A5869C97CB2
:106D90008154D3E907210131013AC3E90721002ACF
:106DA000E6D119690B7962F386130B71E0E70A7972
:106DB00042F010020A710A7942F008020A71CEE725
:106DC00019690A7942F040020A71DEE719690A7905
:106DD00042F010020A710A7942F008020A71D4E7FF
:106DE00093F82A1029B31968184C91F90F10480923
:106DF000203001F01F0102FA01F144F82010BFF326
:106E00004F8FBFF36F8F1969C87940F08000C87148
:106E1000087940F010000871087904246FF3C3006A
:106E200008714C7048796FF30000487183F82C208A
:106E3000ABE719694A7A082002F0F7024A724870F3
:106E4000A3E700BF00600040241C002000E100E038
:106E500010B4EFF30383103B5BB2C033344A52F8F3
:106E600023106FF3104142F82310EFF30383103B1C
:106E7000304A5BB252F8233093F8272092B193F84E
:106E8000260093F8281003283DD0186993F8244071
:106E900084740131013A83F8281083F827205DF8C3
:106EA000044B704793F82920002AF8D1DA69186951
:106EB00082BBC2796FF3C712C271C02201E0013AEE
:106EC00002D0C179C909FAD11B68194A93F9103067
:106ED00003F1C001002B52F821406FF3104442F837
:106EE000214009DB5A09603203F01F030121124CD3
:106EF00001FA03F344F82230C3795DF8044B43F000
:106F00004003C37170470229BFD193F830000028B5
:106F1000C5D0BAE7196A5C69013A645C84740131CE
:106F2000C3E90721002AC4D05DF8044B704700BFB5
:106F300000600040241C002000E100E030B4EFF3CA
:106F40000383103B2A4A5BB252F8233093F829207E
:106F50001AB193F82720012A45D0DA69CAB1196914
:106F6000CB796FF38613CB71C02301E0013B02D0D4
:106F7000CA795206FAD4EFF30383103B5BB2C033F5
:106F80001C4A52F823106FF3104142F8231030BC12
:106F9000704793F82A10F1B11968174D91F90F1045
:106FA00048092030012401F01F0104FA01F145F8DD
:106FB0002010BFF34F8FBFF36F8F1969C879042575
:106FC00040F08000C8714D70487962F3000048714C
:106FD00083F82C40C4E719694B7A082203F0F703C1
:106FE0004B724A70BCE793F83020002AB5D1B6E75F
:106FF000241C00200060004000E100E038B5EFF301
:107000000383103B5BB2344A52F823402269537A1F
:10701000DBB2E021DD06517203F003011AD550788E
:10702000400637D401252946204684F82B50FFF727
:1070300041FE29462046FFF755FDEFF30383103B41
:107040005BB2C033254A52F823106FF3104142F867
:10705000231038BD0029E5D119070FD594F82B303E
:10706000002B33D194F82910B323002914BF022137
:107070000321D3712046FFF735FDDEE794F82C108D
:107080000029DAD05B07D8D594F82B300121002BEA
:10709000F0D1E7E70029C5D151784D06C1F3801042
:1070A000DAD5236884F82B00596A537A09780129C4
:1070B00003F0F7030CBF0321022108205372507024
:1070C000D170537943F001035371B6E70021204694
:1070D000FFF7F0FD0121CDE7241C002000600040F7
:1070E00070B582B0EFF30384103C164B164964B2BE
:1070F00053F82420567995688B5D03F00303032B26
:107100000FD0C03451F824306FF3104341F82430CD
:107110002DB102A8D36840F8083D0196A84702B0F7
:1071200070BD2DB102A8D36840F8083D0196A8476C
:10713000C034054B53F824206FF3104243F8242049
:1071400002B070BD241C0020006000400346D3E95B
:1071500002230020536070470346D3E90123D2691C
:10716000F0B4D2E90347D2E90115566945F000456C
:1071700044F0004441F000425D6100209C611A61CE
:107180005F629E62F0BC7047002824DB30B400F1DF
:10719000604303F56143104D104C0901C9B283F8F7
:1071A000001345F8202000F1C001430954F8215094
:1071B0009B006FF3104503F1604344F8215003F541
:1071C000614300F01F00012202FA00F0C3F88001C1
:1071D00030BC186070477047241C002000600040DD
:1071E000F0B5836985B005460F4616469BB193E816
:1071F000070001AC84E80700EA691A601F719E600D
:1072000018466B699847AB691BB194E8070083E89F
:10721000070005B0F0BD01AC2346EDE7430910B40B
:10722000203300F01F0408490122A24041F8232026
:10723000BFF34F8FBFF36F8F044B5DF8044B0022F9
:1072400043F82020704700BF00E100E0241C00202C
:1072500038B54368044693F91200DD69002801DB64
:10726000FFF7DCFF95F92400002801DBFFF7D6FFCC
:1072700095F92500002801DBFFF7D0FFAB6A2BB1A1
:1072800093F90100002801DBFFF7C8FFD4E90221D0
:107290000023236018469160536338BD30B40478EE
:1072A000486E032C98BF013042B1824206D2032CB3
:1072B00098BF02F1FF321A6030BC7047029D496BE3
:1072C000ED0754BF01F01F01C1F30441032C09D99C
:1072D000090981F0010172B901B180B902225A6035
:1072E00030BC704701F00C01A1F10401B1FA81F149
:1072F0004909002AF0D0824201D30029EED10322AD
:107300005A6030BC704700BF2DE9F0470B7C4160EC
:107310000D46012101FA03F2C260920716BF002256
:107320000174027403F58003D5E9051203F5F063D7
:107330001B02002784B0044683604161C0E90672E5
:10734000EE69EFF31083012282F31088874A287CCC
:10735000D16801288CBF6FF040006FF02000014021
:10736000D160D26883F310882A78287A6B68A16884
:107370004FF4254C032AC1F800C04FEAC050CF6239
:1073800003F1FF3ECF638F6400F0D88084BF40EAF2
:1073900002409E464FF0004CC862D6F81880F06953
:1073A000C1F810C00027C1F814C0C1F818C04FF0D0
:1073B000FF3C4F6203978F62CDF808C0C1F81C8074
:1073C0000862D6F82C80C1F868E0C1F864E0002AB1
:1073D00040F084805B0863440293C64601204FF06E
:1073E000030C4B658B65BEF1000F15D1337883B16B
:1073F000777848F48078022A48EA87134FEA07181A
:1074000000F0A18040F2A180032748EA030848EA7F
:107410000708B378002B7CD1B76A002F00F08A8070
:10742000BB7897F803A097F804901B0643EA0A7309
:10743000D7F808A043EA09438B63C1F88CA0BAF1DE
:10744000000F61D00123BEF1000F09D197F81C9005
:1074500097F81BA04FEA496949EA4A2948EA09080E
:10746000C1F88830BEF1000F08D196F8213096F8A7
:1074700020E05B0743EA4E3348EA03084FF4AA03CF
:10748000012A0B6402D10023CB640B65E368CB6057
:10749000C1F83480C1F830C00863697C95F91200E6
:1074A0002246FFF771FE224696F8221096F9240034
:1074B000FFF76AFE224696F8231096F92500FFF79B
:1074C00063FE2FB12246397897F90100FFF75CFE81
:1074D000274B2360002004B0BDE8F087012A3ED985
:1074E000EA686068009702ABFFF7D8FE039FA168C7
:1074F000029BD6F82CE02A78380440EA076040F076
:10750000030C40F001006CE7FB68003318BF012357
:1075100099E7F7783B0143EA8713022A43F4807323
:107520000FD017D903273B43B76A48EA0348002F17
:107530007FF476AF8F63C1F8887093E740F48030B2
:1075400028E70927EFE709275FE7002F14BF09277E
:1075500006275AE7002F14BF09270627E3E7012073
:1075600063460246C6464FF0030C3AE7FC6F044000
:1075700054504700F0B4EFF30383103B5BB203F1C8
:10758000C001164A164C52F821006FF3104042F821
:10759000210054F8230044682478012C15D1D0E947
:1075A0000265B5600025B564F564356552F8216063
:1075B0000C4F65F310465D09603503F01F0304FAB4
:1075C00003F342F8216047F82530436923B10022D4
:1075D0001146F0BCFFF704BEF0BC704700600040ED
:1075E000241C002000E100E01C4B30B4C3600B7889
:1075F00003F001034370EFF31083012585F3108836
:10760000174AD46824F48014D460D26883F31088B5
:10761000EFF3108485F310884378CBB1C2681379F7
:107620006FF3C713137184F310884A684B78D278CC
:10763000C4680C4DD201D2B2DB016271DBB201220F
:10764000A371E2710B7803704560002030BC704775
:10765000C5682A7963F386122A71E4E700E00540E1
:10766000FC6F044000434144C3684278002023F883
:1076700012107047EFF31082012383F310884378D0
:10768000C1683BB10B7943F080030B7182F3108822
:10769000002070470B7943F040030B7182F3108890
:1076A00000207047EFF31081012383F310884378A3
:1076B00043B1C26813796FF3C713137181F3108854
:1076C00000207047C068027963F38612027181F36B
:1076D00010880020704700BF10B40346EFF31084F9
:1076E000012282F3108842787AB1C26811796FF36F
:1076F000C7111171117A6FF3C711117284F31088D9
:10770000002058605DF8044B7047C168087962F347
:1077100086100871087A62F386100872EEE700BFDF
:107720002DE9F0430F688BB08846814614461FB39D
:107730003D460FCD6E460FC60FCD0FC695E8030030
:1077400086E803000FCC3E460FC60FCC0FC694E868
:10775000030085E803003846C847D8F8004044B124
:107760006D460FCD0FC40FCD0FC495E8030084E81C
:1077700003000BB0BDE8F0831746ECE770B58AB0A4
:10778000EFF30383103B5BB2C0332E4A52F8231051
:107790006FF3104142F82310EFF30383103B5BB209
:1077A000294A52F8235000212822684606F08BFE11
:1077B0006C6894F84D280021D2B2ADF8042084F80A
:1077C0004D18B4F84238C3F30013B3B142F02002AD
:1077D0000223ADF8042094F8532884F8533894F821
:1077E000523803F01F03D2B2E01884F8532890F8FF
:1077F000202861F3820280F820282A686E6A1268C5
:10780000009205F120016A46E86903930496FFF7A8
:1078100087FFB4F84238DB0611D52B681A69127D50
:107820006AB193F91530002B09DB5A09403203F095
:107830001F030121054801FA03F340F822300AB082
:1078400070BD00BF00600040241C002000E100E08B
:107850002DE9F0418AB0EFF30383103B5BB2C033F4
:107860003F4A52F823106FF3104142F82310EFF310
:107870000385103DEDB23B4B6EB2002253F82670EB
:10788000D7E900E494F85318DEF8103084F8532850
:1078900094F852C81B7B0CF01F0C0CF12002C9B2EB
:1078A000100184F853182158205843EAD07303F08C
:1078B0000103C1F380708DF819008DF81830002B8A
:1078C0004AD1C1F38A41059104EB02129388C3F3B4
:1078D0000303D8B208288DF81A303AD908208DF859
:1078E0001A0008AA002304EB0C1808EB030101336B
:1078F00091F8061202F8011B8342F6D3DEF800204D
:10790000009204EB0C03442283F820284FF480619A
:1079100000227B6A0792ADF804106A4607F1200145
:10792000F8690493CDF80CC0FFF7FAFEB4F84238BA
:10793000DB070BD5002E09DB7609403605F01F0565
:107940000123094A03FA05F542F826500AB0BDE8BA
:10795000F0810028C5D1D1E721F060410591B3E75E
:1079600000600040241C002000E100E0F0B58BB076
:10797000EFF30383103B5BB2C033224A52F823106B
:107980006FF3104142F82310EFF30383103B5BB217
:107990001D4A52F82350D5E900340126196894F89D
:1079A00053286F6A84F8536894F85238009103F0B2
:1079B0001F03E118D2B284F85328002281F820284E
:1079C00081F820284FF40062ADF8042005F1200171
:1079D000E86903936A460497FFF7A2FEB4F84238B9
:1079E0009B070CD52B6893F91730002B07DB5A093E
:1079F000403203F01F0305499E4041F822600BB05E
:107A0000F0BD00BF00600040241C002000E100E049
:107A10000B7C03F1401303F500631B02F0B4044632
:107A200041608360EFF31082012383F310883B48A9
:107A30000E7CC568C6F10306B34025EA0303C360A4
:107A4000C36882F31088A26800231372137AC3F309
:107A50004003002BFAD1CD690E7AE87895F800C082
:107A600093722F7900F00700BCF1000F43D1002E74
:107A700048D14B681773C0B2676800259573507280
:107A80009672E3603F7C264E91F9120046F827304B
:107A9000013B9BB2A842138023DB4B7CDFF88CC0F8
:107AA000204E00F1604202F561421B01DBB282F818
:107AB000003300F1C00743094CF820409B0056F802
:107AC00027C003F1604303F5614300F01F0001226A
:107AD00002FA00F065F3104C46F827C0C3F88001A5
:107AE0001860D1E90502104B20610020C4E90502AD
:107AF0002360F0BC7047BCF1500F09D04CEA000085
:107B0000C0B2B6E786F0020640EA06106646B0E765
:107B100040F05000C0B21E46ABE700BFFC6F04400F
:107B2000AC0400200060004054474100241C0020A9
:107B30008268117A01F00101137AC3F3400399427C
:107B4000FAD143681978012903D0F1231372002078
:107B5000704710B4C1681C7C05484B1E9BB2138053
:107B6000F12340F82410137200205DF8044B704795
:107B7000AC040020D0E90223013BF1219BB2138029
:107B800000201172704700BF10B48268117A01F0B2
:107B90000101137AC3F340039942FAD1436893F980
:107BA0001230F424002113F1210F1472117315D037
:107BB0008B4210DB5A09203201210B4C03F01F03CA
:107BC00001FA03F344F82230BFF34F8FBFF36F8FF6
:107BD000436893F91230054A42F8230000230360FA
:107BE0005DF8044B1846704700E100E0241C0020BB
:107BF000F0B585B0EFF30383103B5BB203F1C00136
:107C00001B4A1C4C52F821006FF3104042F821002F
:107C100054F82340D4E901120978137A0129DBB220
:107C200004D103F0F003F421117213722769BFB17C
:107C30006569D5B195E8070001AE86E807009B06A7
:107C400044BF00232B71A3692B602846B8476369A2
:107C50001BB196E8070083E80700A268137ADBB23D
:107C600003F00F03137205B0F0BD01AE3546E6E731
:107C700000600040241C0020034600201A689B8AF4
:107C80001380704703681B88C3F3C0330B70002058
:107C9000704700BF03681031002033F811301380A3
:107CA000704700BF2DE9F043D0E90032D1E900640C
:107CB000D1F808E0D2F814C026F0405724F0405222
:107CC0001FFA82F82EF040551FFA87F93443A3F8C3
:107CD0000490120CA3F814801FFA85F94FEA174894
:107CE0002D0C14F0405FA3F80890A3F80680DA8208
:107CF0005D8156D1CC68002C00F09080228915055A
:107D000022D5D4E900E5B4F80A90B4F80C80A3F8C1
:107D10009020A3F89C90A3F89E801FFA8EF9CEF3D2
:107D20000B48A3F894904FEA1E7EA3F896801FFAA2
:107D300085F9C5F30B482D0F83F892E0A3F89890CE
:107D4000A3F89A8083F8935095051AD49CF80340C1
:107D5000098AA3F89020A3F8801064B11A88818A58
:107D600092B222F01F02B7FA87F71F32D21B92B2EB
:107D700011431A8081822A4BC0E903360020BDE8F6
:107D8000F083A57C94F81390B4F80E80B4F810E05A
:107D900045EA090483F8A640A3F8A880A3F8AAE05E
:107DA000D4E7204D204A2D6A1268DFF88080C5F3A1
:107DB000026902FA09F2C5F30215EA40A8FB025271
:107DC0009509DFF86C8041F2883202FB05F2A8FBCE
:107DD0000252920C0132072A38BF072214F0805554
:107DE0000AD01EF0805F5FFA82F840F2011583F836
:107DF000DE8008BF4FF48075A40009D5D2B245F4E7
:107E000000751EF0005F83F8DF2018BF45F0020503
:107E1000CC68ADB25D82002C7FF470AF224695E74E
:107E20004344415200E00140AC1C0020D34D62109D
:107E300083DE1B4330B400F1604303F56143104D12
:107E4000104C0901C9B283F8001345F8202000F155
:107E5000C001430954F821509B006FF3104503F112
:107E6000604344F8215003F5614300F01F000122F4
:107E700002FA00F0C3F8800130BC1860704700BF00
:107E8000241C002000600040430910B4203300F09F
:107E90001F0408490122A24041F82320BFF34F8F5D
:107EA000BFF36F8F044B5DF8044B002243F8202092
:107EB000704700BF00E100E0241C002038B5436893
:107EC00000220446826093F906005D69E2609042F8
:107ED00002DBFFF7D9FF636893F90700002801DB95
:107EE000FFF7D2FF95F90600002801DBFFF7CCFF72
:107EF00095F90700002801DBFFF7C6FF2368002083
:107F000018821880EFF31082012383F310886468CD
:107F100005492488CD68C4F11004A3402B43CB60ED
:107F2000CB6882F3108838BDFC6F04400A882DE9C5
:107F3000F84305460C464E694879C968A961520262
:107F40002169296202F1804202F5B8220021E9612B
:107F5000A1782A6032796C600302920743F04003F3
:107F6000F27843EA413348BF43F48063002A6ED07D
:107F700043F42073022808BF38499BB208BF31F888
:107F80002200AB8218BF00202279E17896F801E048
:107F90003778D20342EA410242EA4E1EEFF3108CD8
:107FA000012181F31088DFF8BC802288D8F80C907A
:107FB000C2F1100201FA02F229EA0202C8F80C200A
:107FC000D8F80C208CF3108896F804C02A6847F67D
:107FD000FF581FFA8EFE03EA08031CF0020F1380FD
:107FE0001082A2F80EE0177309D04CF0030C82F84F
:107FF0008AC0084600F0EEF82A6896F804C094F9A2
:10800000060082F88AC0002803DB2A46217AFFF79F
:1080100011FF94F90700002803DB617A2A46FFF775
:1080200009FF96F90600002803DB2A46317AFFF79C
:1080300001FF96F90700002803DB717A2A46FFF753
:10804000F9FE0020064B2861AB60BDE8F8830028EC
:1080500090D143F400439BB2AB8295E7DC1701005B
:1080600043444152FC6F04400C4A92F8363063B1ED
:108070000A4A92F8A030D906FBD4084982F8A00039
:1080800091F8A030DB06FBD4704792F83C30DB0758
:10809000EED492F83C30DB07F7D5E9E700E0014089
:1080A000064B074993F826001A6A51F82030054913
:1080B000C2F30262D3400B60704700BF00E0014092
:1080C000BC020020AC1C002070B5374C374B384840
:1080D000384A6260384900224AF20355A3F8FE5339
:1080E000A0F8002121604FF4004193F82600E260DF
:1080F0006261A1602161196A54F820202F4DC1F3FB
:108100000261CA40082009212A6083F8130483F819
:10811000A21093F88024002A3BD0244B002083F83F
:10812000810483F8800493F8A030002B39D11F4BD1
:10813000002283F8362093F83C20D207FBD501219A
:1081400000201F4A83F8311083F826001A6293F842
:108150002620186A54F82220154CC0F30260C24051
:108160002A60042684224FF4254083F83E6083F879
:108170003E2083F8D0102246A3F8FE03A4F8041191
:10818000B2F804319BB2002BFAD10123A2F80031DE
:1081900070BD012183F8801440F2C44000F01AF849
:1081A000BBE7FFF761FFC2E7BC02002000E001402F
:1081B00000C0014000127A00006CDC02AC1C002000
:1081C00000010110704700BFA0F101000028FBD1A1
:1081D000704700BF144B70B401FB00F14FF47A7686
:1081E0001B681248B0FBF3F0A1FB064500234FF0DB
:1081F000FF32AB4208BFA24206D3B4FBF0F08008C6
:1082000080B170BCFFF7E0BF8000B1FBF0F0A0FBD5
:1082100006018B4208BF8242F2D24FF0FF3070BCA1
:10822000FFF7D2BF70BC7047AC1C002000CA9A3B5D
:108230000B4B70B5B3F840510A4E0024ADB225FA8D
:1082400004F3DB07E0B203D556F8243003B19847B6
:108250000134102CF3D1024BA3F8305170BD00BF94
:1082600000600040E01B0020074830B4074D00F1DB
:10827000200403461A1A13F8011BC032A34245F822
:108280002210F7D130BC7047A521010000600040EA
:10829000EFF31081012383F31088124B33F8102081
:1082A00092B22AB133F81020013A92B223F810208A
:1082B00033F810309BB28BB90B4A10B40B4CB2F8A8
:1082C000FE3334F8100043F4254323EA0003A2F8F8
:1082D000FE3381F310885DF8044B704781F31088FA
:1082E000704700BFA41C002000E00140E817010017
:1082F00030B4EFF31081012383F310880C4A32F875
:1083000010309BB253B90B4C0B4DB4F8FE3335F81B
:10831000105043F425432B43A4F8FE3332F81030B9
:1083200001339BB222F8103081F3108830BC7047C3
:10833000A41C002000E00140E81701000C4A08B529
:1083400013684BB1033020F003000A4918448842F7
:1083500005D81060184608BD074B1360F2E705F01A
:10836000E3FF0C2303604FF0FF33184608BD00BF46
:10837000B4040020007B0020B81C002000BE704721
:1083800008B500F005F8FCF7ABFEFEE7704700BF4C
:1083900070B5434A434B444C4FF470054AF20250C7
:1083A0000121C2F8885082B09460A3F8FE031A46F7
:1083B00083F81F1492F8B134DB06FBD500204FF48C
:1083C00025460446A2F8FE63FFF7E0FFFFF77CFEB8
:1083D0008DF8074001209DF80730FFF789FFEFF384
:1083E0001082012585F31088304B996821F00041F7
:1083F0009960996882F310882D4A1168C1F30001D1
:108400008DF807101168C1F300018DF8071012688C
:10841000C2F300028DF80720EFF3108285F3108875
:10842000996841F0004199609B6882F31088284662
:10843000FFF72EFF2846FFF7A9FF1E4B1E499C8021
:108440001E801E4E9E601E481E4E1F4ADE604FF468
:108450008056A1F82061121A9D80214606F033F85B
:108460001A481B4A1B491C4D121A06F008F81B4BF0
:108470005B1BA3424FEAA30605DD013455F8043B1C
:108480009847A642F9DCFFF70BFE0220FFF77EFFBC
:10849000FFF7EAFE002002B0BDE87040FFF792BE91
:1084A00000ED00E000E0014000400000FC6F0440EF
:1084B00000080440000D004000600040007B0020E8
:1084C000D8020020007F0020B41C00200000002003
:1084D000BC02002004250100640200209C02002050
:1084E000064B074A1B6A1268C3F3026123FA00F0C5
:1084F0008A4000F0070022FA00F0704700E00140D7
:10850000AC1C00202DE9F04782462DED028B0020A7
:108510000C46FFF7E5FF07EE900AB8EE678A28EEF3
:10852000008A18EE100A05F0C3F9064620460F46E9
:1085300005F09CF904460D4602460B463046394686
:1085400005F080FC50B1BCEEC88A00238AED0B8A8E
:108550008AF83430BDEC028BBDE8F08700223A4B3C
:108560003046394605F0FCF98046894602460B46FE
:108570002046294605F084FC38B14046494605F0BE
:108580009FFC0223CAF82C00E2E700222F4B304662
:10859000394605F0E5F98046894602460B462046F5
:1085A000294605F06DFC38B14046494605F088FC87
:1085B0000423CAF82C00CBE70022254B304639466D
:1085C00005F0CEF98046894602460B4620462946EC
:1085D00005F056FC38B14046494605F071FC0623CB
:1085E000CAF82C00B4E700221A4B3046394605F091
:1085F000B7F98046894602460B462046294605F0D3
:108600003FFC38B14046494605F05AFC0823CAF8F9
:108610002C009DE70022104B3046394605F0A0F9AA
:1086200006460F4602460B462046294605F028FC22
:1086300038B13046394605F043FC0A23CAF82C000D
:1086400086E78AF8000085E70000D03F0000B03FD1
:108650000000903F0000703F0000503F0022027079
:10866000C0E9012280F83520012280F83620DF227F
:10867000827770472DE9F04704464FF000081F4607
:108680009DF8283080F8008021730375089B0361F2
:10869000099B83610B9B03620C9BDFF84091C0E94F
:1086A0000938FF238A4643771546002A3ED184F8CD
:1086B0003520502004F0BCFE4FF6FF73A0F8423086
:1086C00000F12008DF2380F8205080F8215080F846
:1086D000225080F82350C0E90955C562C0E90E5503
:1086E000C0E90C5580F8443080F8453080F840509F
:1086F00080F84150C0E91255C4F82880202229464C
:10870000064605F0E0FE072FA6605AD8314ABAF1B6
:10871000020FD35D114642D099F80000002856D1CF
:10872000002B4ED102232777D35548E0012A48D1A8
:1087300084F83520242004F07BFE837880F80080C4
:1087400068F3020383704378C57003F0F80368F39D
:1087500006130646437080F8048080F8058080F890
:108760000680A0621C224146083005F0ACFE012FB5
:10877000666026D8184BBAF1020FDA5D194602D0AE
:1087800099F8000028B1012A1BD802232777CB557E
:1087900015E0B2B90222DA552777257011E0012BD6
:1087A000F3D92777384601F0F5FC3022816A40463C
:1087B00005F065FE384601F0EDFC036BA361012373
:1087C0002370002389F800302078BDE8F087012B62
:1087D000DAE700BFBA040020B8040020C204002079
:1087E000194A70B5002316469C5C1CB95BB2047034
:1087F000184670BD0133082BF6D1144B1C7814B108
:108800005D78DDB90124012263B20270F0E707222E
:10881000B15C022953B205D0002202700C4A01213A
:108820001170E5E712F1FF32F2D2022D01D00123DF
:1088300002E0022C04D000230122EEE70029E6D159
:108840004FF0FF33D4E700BFBA040020B804002083
:10885000C20400202DE9F84F82462DED028B14460C
:108860008B4631B9BDEC028B1146BDE8F84FFFF7DE
:1088700049BE012939D10820FFF732FE07EE100A60
:10888000B8EE478A28EE008A18EE100A05F010F8B4
:10889000064620460F4604F0E9FF04460D46024610
:1088A0000B463046394605F0CDFA38B1BCEEC88AE1
:1088B00000238AED0B8A8AF8343016E000221A4B26
:1088C0003046394605F04CF88046894602460B464C
:1088D0002046294605F0D4FA58B14046494605F0ED
:1088E000EFFA8AF834B0CAF82C00BDEC028BBDE870
:1088F000F88F00224FF07F533046394605F030F8AC
:1089000006460F4602460B462046294605F0B8FAB1
:1089100038B13046394605F0D3FA0323CAF82C00A3
:10892000C9E78AF80000E0E70000E03FF0B52DED70
:10893000028B1E460123F7EE007A9E4287B0044662
:108940000F461546B0EE608A037087EE800A3BD86A
:10895000002A39D14FF0FF31FFF7D4FDB5EEC08AC0
:10896000F1EE10FA37DBDFED1D7AB4EEE78AF1EEB7
:1089700010FA30D8D4ED0B7AF8EE677A67EE887A81
:1089800017EE900A04F094FF0022154B05F012F93F
:1089900005F096FA206323788BB10F9B04930E9B0E
:1089A000039394F834300293236B0193E36A0093AA
:1089B0002A46334639462046FFF75CFE2070207871
:1089C00007B0BDEC028BF0BD4FF6FF722946204682
:1089D000FFF740FFC2E700232370DCE70000C84236
:1089E0000000594038B590F8353004468BB980689E
:1089F00008B9002038BD04F10C01FEF785FC0546DE
:108A0000A068FEF7A9FB0E2D01D0002DF1D10120A9
:108A1000F0E7012BEDD140680028EAD004F10C0109
:108A20000830FEF7F5FF054660680830FFF7A2F84A
:108A3000E9E708B590F835303BB9806820B1FEF71A
:108A400085FBB0FA80F0400908BD012B06D14068D3
:108A50000028F9D00830FFF76BF8F2E70020F3E7C1
:108A600008B590F835303BB9806820B1FEF7F0FBCF
:108A7000B0FA80F0400908BD012B06D140680028FB
:108A8000F9D00830FFF780F8F2E70020F3E7FFFFA6
:108A900038B50446FFF7E4FF606838B1237F0C4A1D
:108AA00000252421D55404F0EDFC6560A56875B15E
:108AB000237F084AA86C0021D15410B1202104F072
:108AC000E1FC5021284604F0DDFC0023A36038BD02
:108AD000B8040020BA04002010B50446FFF7D8FF00
:108AE000204610BD01F10C0303608B6803B12033F5
:108AF00043604B6883607047836823B11868003017
:108B000018BF0120704740680028FBD08068F6E756
:108B1000F0B585B004460F46014601A81546FFF79B
:108B2000E1FF2046FFF7E8FF064610B12046FFF7B9
:108B300097FF00F055F82A4601A900F01DF90546F7
:108B400050B167772EB12046FFF74CFF2046FFF764
:108B500070FF284605B0F0BDDF23A377F2E7FFFFE3
:108B600000F1C0020A4B53F822106FF3104143F892
:108B7000221000F01F024009800000F1604000F563
:108B8000614001239340C0F880310360704700BF0B
:108B9000006000404309012200F01F0002FA00F0CB
:108BA0002033044A42F82300BFF34F8FBFF36F8F87
:108BB000704700BF00E100E07047FFFF0028A7BF3B
:108BC00000F1604000F5614000F00F00034BABBFC7
:108BD000C023C02280F800331A54704714ED00E01F
:108BE00038B50A4D2B78BFF35B8F13F001040BD11E
:108BF000284604F02EFC38B1054B28461C6004F0D2
:108C000034FC044802F015FA014838BDC4040020C1
:108C1000C8040020B98B00002AB9304BC0310122B2
:108C200043F821207047012A03D1C0312B4B022287
:108C3000F6E7022A03D1C031284B0322F0E7032ACA
:108C400003D1C031254B0422EAE7042A03D1C03105
:108C5000224B0522E4E7052A03D1C0311F4B06222F
:108C6000DEE7062A03D1C0311C4B0722D8E7072ACA
:108C700003D1C031194B0822D2E7082A03D1C031F1
:108C8000164B0922CCE7092A03D1C031134B0A2223
:108C9000C6E70A2A03D1C031104B0B22C0E70B2ACA
:108CA00003D1C0310D4B0C22BAE70C2A03D1C031DD
:108CB0000A4B0D22B4E70D2A03D1C031074B0E2217
:108CC000AEE70E2A03D1C031044B0F22A8E70F2ACA
:108CD000A8D1C031014B1022A2E700BF00600040C4
:108CE00032B91A4BC0315D2243F821200120704770
:108CF000012A05D1C031154B652043F82100F5E765
:108D0000022A03D1C031114B6D22EDE7032A03D1B2
:108D1000C0310E4B7522E7E7042A03D1C0310B4B5B
:108D20007D22E1E7052A03D1C031084B8522DBE72C
:108D3000062A03D1C031054B8D22D5E7072A03D17E
:108D4000C031024B9522CFE7002070470060004001
:108D500032B9C031074B1E2243F821200120704751
:108D6000012A05D1C031034B212043F82100F5E74A
:108D70000020704700600040F8B51B4B9E680B68F0
:108D8000174693F91220213205460C4601D00120E6
:108D9000F8BD4A6840368AB11A7C0168FFF7A0FF27
:108DA0000028F4D02268082353742B689374AFB959
:108DB0000E4A46F8232001332B60E9E78A6882B126
:108DC0001A7C0168FFF7C4FF0028E0D0226808235E
:108DD00053742B6893740FB9054AEAE746F8237079
:108DE000E9E71046D4E700BF00ED00E0757500002C
:108DF000F17B00002AB9064BC031362243F821200E
:108E00007047012AFCD1C031014B3B22F6E700BF7D
:108E1000006000402AB9064BC031352243F82120BA
:108E20007047012AFCD1C031014B3A22F6E700BF5E
:108E3000006000402AB9064BC031372243F8212098
:108E40007047012AFCD1C031014B3C22F6E700BF3C
:108E5000006000402AB9064BC031382243F8212077
:108E60007047012AFCD1C031014B3D22F6E700BF1B
:108E7000006000402AB90C4BC031992243F82120F0
:108E80007047012A03D1C031074B9F22F6E7022A1F
:108E900003D1C031044BA422F0E7092AF0D1C0313C
:108EA000014BA922EAE700BF006000402AB90C4B41
:108EB000C031982243F821207047012A03D1C031E4
:108EC000074B9E22F6E7022A03D1C031044BA322AE
:108ED000F0E7092AF0D1C031014BA822EAE700BF30
:108EE000006000402AB90C4BC0319A2243F821207F
:108EF0007047012A03D1C031074BA022F6E7022AAE
:108F000003D1C031044BA522F0E7092AF0D1C031CA
:108F1000014BAA22EAE700BF006000402AB90C4BCF
:108F2000C0319B2243F821207047012A03D1C03170
:108F3000074BA122F6E7022A03D1C031044BA62237
:108F4000F0E7092AF0D1C031014BAB22EAE700BFBC
:108F5000006000402AB9064BC031AE2243F8212000
:108F60007047012AFCD1C031014BB322F6E700BFA4
:108F7000006000402AB9064BC031AD2243F82120E1
:108F80007047012AFCD1C031014BB222F6E700BF85
:108F9000006000402AB9064BC031B12243F82120BD
:108FA0007047012AFCD1C031014BB622F6E700BF61
:108FB000006000402AB9064BC031B02243F821209E
:108FC0007047012AFCD1C031014BB522F6E700BF42
:108FD000006000402DE9F84FAD4B9E6805461446F1
:108FE000403672B6012940F08E80002A00F0988049
:108FF0009368213340F08580036812681A441F2A61
:1090000000F213846268DFF8A48246F82320C0339C
:10901000332248F8232090F90000FFF7BBFD95F9B3
:109020000030C03358F823206FF3104248F8232053
:1090300095F90000FFF7C2FD95F90000FFF790FDDC
:109040002B686168A3605A1CC1332A6046F822105D
:10905000342248F8232095F90000FFF79BFD95F98D
:109060000030C03358F823206FF3104248F8232013
:1090700095F90000FFF7A2FD95F90000FFF770FDDC
:109080002B6861685A1CC1332A6046F822103122CD
:1090900048F8232095F90000FFF77CFD95F9003092
:1090A000C03358F823206FF3104248F8232095F975
:1090B0000000FFF783FD95F90000FFF751FD2B68D5
:1090C00061685A1CC1332A6046F82210322248F8DF
:1090D000232095F90000FFF75DFD95F90030C033BE
:1090E00058F823206FF3104248F8232095F9000028
:1090F000FFF764FD95F90000FFF732FD2B6801339F
:109100002B6001240CE002290ED14AB1936821336F
:10911000F7D10068146804441F2C8CBF002401247C
:1091200062B62046BDE8F88F032910D1002AF7D097
:1091300092F912302133E4D10E2353740168554B58
:10914000917446F82130127CFFF702FED6E704291D
:1091500044D1002AE4D092F9073021332DD10C27D5
:10916000977101684C4BD17146F821301278FFF7A6
:1091700081FE0168494B013101606172277246F836
:1091800021302278FFF7AEFE0168454B01310160C6
:109190006171277146F821302278FFF787FE016858
:1091A000404B01310160A772E17246F8213022780C
:1091B000FFF7B4FE03680133036094F90700FFF77B
:1091C000CFFC94F90900FFF7CBFC94F90500FFF7F9
:1091D000C7FC94F90B00FFF7C3FC92E7002940F0AD
:1091E0009480002A9CD0137A3BBB126892F90D3010
:1091F00021331ED10C231373036853732A4A46F894
:109200002320C033294A262142F8231023686068AE
:1092100093F90D101B7B01F160421B0102F56142C5
:10922000DBB282F80033224B43F821002B68013374
:109230002B60236893F90D00CDE7012B3AD112681A
:1092400092F90F3021331ED10C2393730368D3732B
:10925000154A46F82320C033144A272142F8231028
:109260002368606893F90F109B7B01F160421B013A
:1092700002F56142DBB282F800330D4B43F8210066
:109280002B6801332B60236893F90F00A3E700BF1D
:1092900000ED00E0F17B0000315D00008D5F00001B
:1092A000115E0000CD5F0000156500000060004009
:1092B000241C0020022B40F0B882126892F9113071
:1092C00021331ED10C23137403685374984A46F853
:1092D0002320C033974A282142F82310236860686E
:1092E00093F911101B7C01F160421B0102F56142F0
:1092F000DBB282F80033904B43F821002B68013336
:109300002B60236893F9110065E7052964D1002AD1
:109310003FF406AF576892F808A00C237B7397F9C7
:109320000F30213349D10168844BF973524646F816
:109330002130FFF75FFD824C90F90030DFF8F881B3
:10934000E2184FF0C00982F80093016848F82370D2
:1093500001317C4B01605246B97346F82130FFF76A
:1093600059FD90F90030E21882F80093016848F83E
:1093700023700131744B01605246397446F8213034
:10938000FFF758FD90F90030E21882F80093016869
:1093900048F8237001316D4B01605246797446F8EC
:1093A0002130FFF757FD90F900301C4484F80093FA
:1093B00048F8237003680133036097F90F00FFF743
:1093C000CFFB97F90E00FFF7CBFB97F91000FFF7E3
:1093D000C7FB97F91100FEE606294FD1002A3FF49A
:1093E0009FAE576892F808A00C237B7397F90F3053
:1093F000213338D10168564BF973524646F8213073
:10940000FFF738FD4E4C90F90030DFF82C81E21860
:109410004FF0C00982F80093016848F823700131C9
:109420004C4B01605246B97346F82130FFF73EFDC0
:1094300090F90030E21882F80093016848F8237030
:109440000131454B01605246397446F82130FFF72F
:1094500049FD90F900301C4484F8009348F82370CB
:1094600003680133036097F90F00FFF779FB97F961
:109470000E00FFF775FB97F91000ACE6072941D104
:10948000002A3FF44DAE40F60C43138292F90D30A2
:10949000213328D10168314B517346F821301278BD
:1094A000FFF7A8FC01682E4B01310160217346F8DB
:1094B00021302278FFF7AEFC01682A4B01310160B0
:1094C000A17346F821302278FFF7B4FC0168264BDF
:1094D00001310160E17346F821302278FFF7BAFCD0
:1094E00003680133036094F90D00FFF739FB94F929
:1094F0000C00FFF735FB94F90E00FFF731FB94F9F0
:109500000F0068E6082933D1002A00F08E8192F915
:10951000023021337FF4F5AD0C2353700168134BF7
:10952000917046F821301278FFF776FBE6E500BF30
:109530007D65000000600040241C0020516E00008A
:1095400000E100E0196D00003D6F0000FD6F0000BC
:10955000856200006562000025640000116900005A
:10956000F1670000B5690000496A0000E170000081
:10957000092974D1002A3FF4D3AD576897F9023016
:10958000213361D192F808A00168A94BD2F800906C
:10959000B9704FF0060B87F806B0524646F82130F6
:1095A000FFF7D8FCA34C97F90220BB79DFF8B08213
:1095B000A1181B01DBB281F8003301689E4B48F80B
:1095C0002290013101605246797087F805B046F863
:1095D0002130FFF7CFFC97F901207B79A1181B01FF
:1095E000DBB281F800330168944B48F822900131D6
:1095F00001605246397187F808B046F82130FFF70C
:10960000D9FC97F904203B7AA1181B01DBB281F841
:10961000003301688A4B48F82290013101605246BC
:10962000F97087F807B046F82130FFF7B3FC97F9D7
:109630000320FB7914441B01DBB284F80033036878
:1096400048F822900133036097F90200FFF788FA87
:1096500097F90100FFF784FA97F90400BBE50A299E
:1096600078D1002A3FF45CAD576897F90230213376
:1096700061D192F808A00168724BD2F80090B970DD
:109680004FF0060B87F806B0524646F82130FFF738
:10969000F1FB684C97F90220BB79DFF8C481A1186F
:1096A0001B01DBB281F800330168674B48F8229058
:1096B000013101605246797087F805B046F82130D3
:1096C000FFF7F4FB97F901207B79A1181B01DBB2AE
:1096D00081F8003301685D4B48F822900131016048
:1096E0005246397187F808B046F82130FFF716FC6A
:1096F00097F904203B7AA1181B01DBB281F80033F3
:109700000168534B48F82290013101605246F970CC
:1097100087F807B046F82130FFF7E4FB97F90320FC
:10972000FB7914441B01DBB284F80033036848F86A
:1097300022900133036097F90200FFF711FA97F9BD
:109740000100FFF70DFA97F90400FFF709FA97F9FE
:10975000030040E50B2968D1002A3FF4E1ACD2E9CF
:1097600000140C23237594F91530213352D103686A
:10977000384A637546F82320226822B9C033364A36
:109780004A2042F8230094F91500237D334F00F15D
:10979000604202F561421B01DBB282F800332A68A5
:1097A0002F4B43F82010501C2860A07546F82070FD
:1097B000206820B9C13228484D2740F8227094F91A
:1097C0001670227D07F1604000F561401201D2B2AF
:1097D00080F800232A6843F82710501C214F286086
:1097E000E07546F82070206820B9C1321A484E262C
:1097F00040F8226094F91760227D06F16040120162
:1098000000F56140D2B280F8002343F826102B689F
:1098100001332B6094F91500FFF7A2F994F91600B3
:10982000FFF79EF994F91700D5E4002478E400BF0F
:10983000BD52000000E100E0315200005154000030
:109840007953000079600000E16000009161000040
:10985000556100007D7700000060004051780000F5
:10986000241C00206D79000008B53C22002102482C
:1098700004F029FE08BD00BFCC04002070B5002410
:10988000064D264655F8240020B12C2103F0FAFDA0
:1098900045F8246001340F2CF4D170BDCC040020B5
:1098A00001207047036840F213421B6A1847D0F842
:1098B0002C322BB1D0F82832184490F8240070478D
:1098C0004FF0FF30704713B5044690F8A8048DF8A8
:1098D000071070B1002384F83C3401220DF1070118
:1098E00004F58860FBF722FE94F83C34002BFBD093
:1098F000012002B010BD0023C0F82432C0F8283285
:10990000C0F82C32C0F83034C0F83434C0F83834E1
:1099100000F58860FBF78ABE0268204B53F82230BE
:1099200013B54BB10279042A08D0802A01D0022A4B
:1099300002D1012283F83C2402B010BDD3F82C22BE
:10994000B2F5007FF8D0007AEFF310820092012286
:10995000019272B6019A013A511C1AD0D3F82C1216
:10996000B1F5007F02F1FF3411D0D3F8241219446D
:1099700081F82400D3F824120131C1F30801C3F89F
:109980002412D3F82C120131C3F82C12E3E722463B
:10999000E2E768460192FBF79DFBCDE70805002052
:1099A00013B5EFF3108300930123019372B6019B6B
:1099B0005A1E0192E3B1D0F82C32B3B1D0F828325C
:1099C000034493F82440D0F828320133C3F308034A
:1099D000C0F82832D0F82C32013BC0F82C3268464F
:1099E000FBF778FB204602B010BD4FF0FF34F6E7DE
:1099F0006846FBF76FFB4FF0FF34F3E738B50446DA
:109A000000254FF47A70C4E90150A3611648049B05
:109A1000E361C4E90412206029464FF4007204F1A6
:109A2000240004F050FDC4F824524FF40072C4F82E
:109A300028522946C4F82C5204F50C7004F043FD5A
:109A4000DF23C4F8305484F8A854C4F8345484F89C
:109A50007734C4F8385484F8793484F8753484F849
:109A60007B34204638BD00BFF817010010B50C4606
:109A7000FFF7B6F822460421BDE81040FFF7AABA66
:109A800038B590F8A8340446154663B1002380F831
:109A90003C3400F58860FBF749FD94F83C34002B1A
:109AA000FBD0284638BD1D46FBE7FFFFF0B5036934
:109AB000002B85B0044602DA002005B0F0BD4269F3
:109AC000002AF9DB8B42F7DA8A42F5DAD9B20022B2
:109AD000684602AE03F03CFC0122217D304603F0D3
