:020000040000FA
:10000000FC7F002001060000F1050000F50500005E
:1000100000000000000000000000000000000000E0
:10002000000000000000000000000000F9050000D2
:100030000000000000000000FD0500004107000076
:1000400010B5064C2378002B07D1054B002B02D0AE
:10005000044800E000BF0123237010BD5C000020B5
:1000600000000000A018000008B5084B002B03D0CA
:100070000748084900E000BF07480368002B03D089
:10008000064B002B00D0984708BDC046000000007A
:10009000A0180000600000205800002000000000B0
:1000A000154A164B1178002909D115491878097895
:1000B0004118C9B21970802012498002C8611178B4
:1000C0000131C9B211701978F02902D819780929BB
:1000D00009D80B4908784042C0B2087018780978EE
:1000E0004118C9B2197012781B789A4203D1802244
:1000F000044B9202DA617047780000200100002072
:10010000000000200044004110B5C3699C07FCD4E6
:1001100003680224A3430360C46901231C42FBD18A
:100120000468234303600368DC07FCD4C46901232B
:100130001C42FBD1C469DC401C42F7D1084B1A4376
:100140000260C3695A07FCD4C0239B0243608181CB
:10015000C3699C07FCD4036802221343036010BDEB
:1001600004000040037EDA07FCD5018570470000DB
:10017000027E01235107FBD5428B1A4207D1428BE5
:10018000DA401A4203D1428B92081A4202D0034B42
:1001900001221A70008DC0B27047C046790000205D
:1001A00070B50368041C988B1A1C0821FF320842A2
:1001B00026D0802099839872112353704021144BCC
:1001C000917150715E68134DC0202E40800506432A
:1001D0005E605E693540284358610F4818600F48DB
:1001E00018615D680E4828408025AD02284358609C
:1001F0005868800B8003586000235171237105E01B
:10020000137ADA0602D5201C00F0D4FA207970BDEA
:1002100098010020FFFFFF8F9800002018010020A8
:10022000FF3F00F0002303714371044B01608360C2
:100230000B78022213430B707047C046A1010000E7
:1002400038B5364B2021DA6901200A43DA61344B94
:1002500006241A7802431A70324B0F221978914300
:1002600019701978214319702F490C7820430870B0
:1002700019780A401A701A7860210A431A702B4BB9
:100280002B4A5A805A7852B2002AFBDB294B0121B3
:100290001A780A431A709A78D107FCD42648026863
:1002A000510B1F221140914200D1052111408C01B8
:1002B0001D8D22492940214319850468A10C0A405B
:1002C0001F2A00D11D221C8D1F210A408C4322436E
:1002D0001A8502680721D20D0A408A4200D1032202
:1002E0000A40188D1103164A02400A431A851978EC
:1002F0007F220A401A701A78042112480A431A70A1
:1003000058621A890C218A431A811A8901218A4369
:100310001A810021802201F040F938BD000400401C
:10032000584400413C44004159440041000C004005
:100330000640000000500041246080003FF8FFFFAD
:10034000FF8FFFFF98010020F7B5141C1F4A5F01C3
:1003500001971D1CD319061C5869271C4000400F2B
:1003600003301033C74006D00F1C80225968120694
:100370000A435A6009E02F1C7B1E9F41144BBF01AA
:10038000FF18381C221C01F0FFF801990F480835AE
:1003900042181761131C5269A104920B890C920335
:1003A0000A435A6159690B4A0A405A616B01F318B2
:1003B0000222DA715979802252420A435A716B0142
:1003C000F318DB799A07FAD5201CFEBD98010020AE
:1003D00018010020FF3F00F0F8B51A4E051C3378D5
:1003E000141C002B12D1184B184A1A645A6C920B29
:1003F00092035A64586C164A02405A64A2235B0066
:10040000EA5C40200243EA54012333704827FF3757
:10041000EA5D0123134012D00B4B5A6C9204920CEC
:10042000A24202D25C6CA404A40C081C221C074942
:1004300001F0AAF80123EB550023337000E01C1CE7
:10044000201CF8BD7A00002098010020D800002070
:10045000FF3F00F0FF3083792022002900D11022D5
:100460001343837170470000084BFF305A69920BA9
:1004700092035A6102230372827980235B42134301
:100480008371037A9A07FCD57047C0469801002013
:1004900080235B421943C9B28172704770B5A023B3
:1004A00003225B00C254134B134A5C6CC0211440FE
:1004B00089050C4346255C64FF35402444550F4DA7
:1004C00030261D6490256D0046555D6B154029430F
:1004D000922559636D0080214155094D1D63B0255A
:1004E0006D0044555C6F22405A67B2235B00C154D3
:1004F00070BDC04698010020FFFFFF8FD80000208C
:1005000058010020024B5B785BB2002BFADB70478E
:10051000000C0040024BDB68DA06FBD57047C04692
:1005200000080040F8B5264B1E215A6802268A436F
:10053000244C32435A60A660FFF7E4FF224B234D60
:100540006360FFF7DFFFAE84FFF7E4FF204B1B681B
:100550009B0E3F2B00D11F231E4A9B0213431E4AB2
:100560000026EA62AB62AE84FFF7D4FF1B4B022782
:10057000AB84FFF7CFFFAB8C3B43AB84FFF7CAFFE5
:1005800063883F2293431F43678062888023DB0197
:1005900013436380A660FFF7B5FF114B6360FFF75D
:1005A000B1FF104B104AC0215A60104A0906106A68
:1005B0000002000A0143116207229E601A60F8BD22
:1005C00000400041000C004006000100000800400F
:1005D00024608000FF01000080BB0A1C240500008D
:1005E0000007030010E000E0E703000000ED00E07A
:1005F0000EBEFEE70DBEFEE705BEFEE702BEFEE74D
:100600000E4A0F4838B5824204D10E4A0E4B93422F
:100610000ED10AE00D4C9442F7D00023D118884245
:10062000F3D9E55804330D60F8E700F011F804E061
:100630009342FAD2002102C3FAE7FEE7000000204D
:100640005C000020A80300205C000020A41800002B
:1006500038B5304B1A681C1C013221D02E4A191DA6
:100660001160D9B200291BD12C4A10780122104008
:100670002B4A0AD115682B498D4201D110600FE039
:100680001160294901390029FCD11160226882F3E7
:100690000888FF229343254A93601E4B5B681847E6
:1006A000FFF740FF62B600F09DFD00F04FF8204BD1
:1006B000802292029A601F4B1F4A041C5A601B4AF8
:1006C000C021106A09060002000A014311620022DB
:1006D0009A6007221A60A368201C9847174B0028CD
:1006E00001D001221A701A78002A05D0002000F0EB
:1006F0008BFA00F003FBFCE71B78002BEBD100F03A
:10070000E5FD0028E7D0012000F07EFA00F0F6FABF
:10071000FCE7C0460020000018020020380400401A
:10072000FC7F00203581730748E8010000ED00E000
:100730000044004110E000E0E70300007B000020DF
:1007400008B5FFF7ADFC00F0C3FA08BD10B5054BC6
:10075000054C2360FFF774FD201C2168FFF762FD44
:10076000201C10BD005000411C02002070B5051C6B
:10077000C0B0081C161C0C1C00F017FF40006A4695
:10078000032302305370107076080123E218013AF7
:1007900011785A00002906D1281C69460023FFF76A
:1007A000D3FD40B070BDB342F6DA684681520133E2
:1007B000ECE70000F7B5BA4A04681378B949271C7A
:1007C000FF37051C102038720B705378B648B74EAF
:1007D000037093783380D178338809020B433380D8
:1007E0001179B34B19805179188809020843188090
:1007F0009079B0490880D2790888120202430A80B1
:1008000040227A71A84F3A78A64F120238780F1C0E
:100810000243A9488446181C624500D1C2E020DC8E
:10082000802149008A4200D16EE109DC812A00D191
:1008300092E0822A00D195E0802A00D064E18BE02A
:1008400081235B009A4200D1CFE000DA58E1C02357
:100850009B009A4200D157E1984B9A4200D14FE158
:1008600052E190231B019A4269D015DCD023DB00B2
:100870009A4222D088231B019A4269D0A023DB0030
:100880009A4200D040E1201CFFF7EEFD3188286835
:1008900089B2FFF7FDFD3BE1894B9A4200D12FE180
:1008A00000DC31E1874B9A4200D11DE1864B9A4230
:1008B00000D029E133886B7122E133881B0A012BB8
:1008C00008D10B8812222868934201D80A8892B274
:1008D0007E4911E133881B0A022B08D10B88432281
:1008E0002868934201D80A8892B2794904E1338892
:1008F0001B0A032B00D007E13388DBB2012B17D092
:10090000002B07D0022B00D0FEE00A882868D2B264
:10091000704911E0042201A86F4900F035FE3B88C0
:1009200004222868934201D83A8892B201A9E3E0F0
:100930000A8828686949D2B2FFF718FFE8E03388CF
:10094000201C2B71FFF790FD201CFFF7A7FDDFE0B7
:10095000291C01C90122CFE0614900230B802868CE
:100960000222CAE05E4900220A8018885022104004
:100970005C4A10701E880F203040188018880328A9
:1009800000D9C1E012781B8808335B01E418A37911
:10099000002A01D09B0600E0DB06DB0F0B802868F5
:1009A0000222A9E019887F2291434E4AC9B21170F0
:1009B00018880F21014019803188002900D0A3E058
:1009C0001988002900D19FE01988032900D99BE0EC
:1009D00012781B8808335B01E318002A02D020221A
:1009E0005A718DE0102159718AE002887F239A4361
:1009F0003C4BD2B21A7001880F220A400280328822
:100A0000002A00D080E00288002A00D17CE0028821
:100A1000032A00D978E01B78002B1FD00388083305
:100A20005B01E3189B799A066AD503882022083374
:100A30005B01E3181A71038808335B01E318DB7963
:100A40005F065DD50388402208335B01E318DA7145
:100A50000388022208335B01E3181EE00388083391
:100A60005B01E3189B79D9064AD503881022083325
:100A70005B01E3181A71038808335B01E318DB7923
:100A80009A063DD50388202208335B01E318DA710A
:100A90000388012208335B01E3181A7130E0C04675
:100AA000980000207D0000208200002084000020AB
:100AB00086000020800000200203000001030000E7
:100AC00021200000A121000021220000F4150000D7
:100AD00004000020E0150000D0150000D41500002F
:100AE0007E0000207C0000200B88082228689342AA
:100AF00001D80A8892B207490023FFF725FC07E0D6
:100B0000201CFFF7B1FC03E0201C0121FFF7A2FC31
:100B1000F7BDC0464800002007B5054B01220190F3
:100B200001A91868131CFFF70FFC01200EBDC04679
:100B30001C02002013B5054B6C4607341868211CB5
:100B40000122FFF749FC207816BDC0461C02002098
:100B500010B5074C201CFFF723FB031C0020834229
:100B600005D022684823FF33D05C0123184010BD14
:100B70001C02002010B5054A0C1C031C191C10682F
:100B80000123221CFFF7E0FB201C10BD1C020020EB
:100B900070B5084C061C201C0D1CFFF701FB002340
:100BA000984205D02068311C2A1CFFF715FC031C55
:100BB000181C70BD1C020020F8B50C4C051C201C34
:100BC0000E1CFFF7EDFA0023271C341C98420AD0B4
:100BD000002C07D0291C221C3868FFF7FDFB241AC3
:100BE0002D18F5E7331C181CF8BDC0461C02002068
:100BF00008B5031C081C111C9847024B64221A807C
:100C000008BDC0468C000020012805D1054B064ACE
:100C10001A60064B187004E0002802D1044A014B08
:100C20001A6070478C0200202816000094000020F3
:100C30007416000030B50A1C1C4985B00978031CE5
:100C400000292AD0042A01D1006804E0022A01D137
:100C5000008800E00078520004A98B180B3B9C1A16
:100C6000A3420BD00F210140092902D83025294386
:100C700000E0373119700009013BF1E701A9302389
:100C80000B7078234B700A208B1898700D20D87049
:100C9000074B04321B68D86803E005490968C86837
:100CA000191CFFF7A5FF05B030BDC0468800002025
:100CB0008C02002072B6EFF30883044A13600368C5
:100CC00083F30888436818477047C04690020020A5
:100CD000084B1A88002A03D01A88013A92B21A8067
:100CE000054B1A88002A03D01A88013A92B21A805A
:100CF0007047C0468C0000208A000020F0B591B0FB
:100D000008A9CC4A0B1C31CA31C351CA51C360CAAD
:100D100060C3C94BC9489A687A255203520F9200A2
:100D20005258C74902609C68A4B262430C60C5492E
:100D300000240A60C44A1460C44C2570C44CC54DDC
:100D40002368281C1B6940219847002802D0C24B09
:100D500064221A80C14B00221860C14B1D60C14B38
:100D6000C04DBE4F1A602A683B689A42E6D2BC4B1F
:100D70001B681A78FF2A00D114E2232A00D0EBE185
:100D8000B94E3378002B06D0B14BB8491B6802220C
:100D9000D868FFF72DFFAD4B1B78532B3CD13B6838
:100DA0002A6893421ED9AE4801322A609A1AB04B83
:100DB00001681B6801310160AE4E9A4201D2326077
:100DC00000E03360A04832680068049000F0DCFB6B
:100DD000336829685A182A60A14A1668F118116008
:100DE000A54A13702B68013B2B609D4B1A68013A92
:100DF0001A60A14B9E4A1B7811688B420AD2226866
:100E00009148C91A006892699047002802D0924B15
:100E100064221A80C0468DE1522B0AD18A48944A36
:100E20002368006811685B69039098476422934BBC
:100E30000DE04F2B05D1844B8D4A1B6812681A7048
:100E400078E1482B05D1804B894A1B6812681A80CB
:100E500070E1572B05D17C4B854A1B6812681A60DC
:100E600068E16F2B03D1784B0121186807E0682BEC
:100E700008D1754B7E481B6802211B880360FFF771
:100E8000D9FE57E1772B06D16F4B79481B680421B7
:100E90001B680360F3E7472B13D1754B1868FFF706
:100EA00009FF774B1B6883F3088862B6754B1B7884
:100EB000002B00D13EE1664B06201B681B6898475B
:100EC00038E1542B04D101233370614B1B6864E07B
:100ED0004E2B0CD13378002B06D15D4B63491B6838
:100EE0000222D868FFF784FE0023337022E1562BDC
:100EF00057D123686449D8680122FFF779FE236837
:100F00006249D8680322FFF773FE614D2368291CEC
:100F1000D8680122FFF76CFE23685E49D8680D226D
:100F2000FFF766FE2368291CD8680122FFF760FEE0
:100F30004B4F4C4D5849002339602B603A1C281CFC
:100F400013685E1C16601B780593002B03D00368A2
:100F500001330360F4E73E4E2A683368D868FFF730
:100F600047FE33684A49D8680122FFF741FE0599D8
:100F700029604A4939603A4A1368581C10601B7846
:100F8000002B04D0374B1A6801321A60F3E733683C
:100F90002A68D868FFF72CFE3368D86833490222E4
:100FA000C6E0334A582B17D1244E264D36681368B5
:100FB0002A68B10093420AD21F4D5808E8613848A8
:100FC00028801D4D287DC607FBD55B18F2E7204B16
:100FD00034491B68D868AAE0592B79D112681A4B9A
:100FE0003149002A02D11B680B606CE0124D086881
:100FF00019686B68104E8025AB4392087360002A15
:1010000061D02A4B0C4D2B800B4E337DDD07FBD579
:1010100000230A4D2D680195AD08AB4203D3244D42
:10102000054E358046E09342F9D09D004659013384
:101030004E51EEE708160000004000414402002037
:101040003C020020380200208802002034020020E8
:101050008C020020480200208A0000202C02002080
:1010600030020020400200208800002068160000A6
:101070009402002098020020280200208C0000200A
:101080009002002094000020441600006D1600001D
:101090004616000090160000481600005416000086
:1010A00002A5FFFF5D1600009000002044A5FFFF91
:1010B00004A5FFFF3F4E357DEE07FBD59D00491986
:1010C0004019D21A9BE73C4B3C491B68D8682EE07C
:1010D0005A2B2FD13A4B17681D680026EF19BD42D5
:1010E00006D02878311C00F013F90135061CF6E70C
:1010F000314B34491B680122D868FFF779FD07237B
:101100000F223240111C36093031092A00DD073127
:101110001820C0186A468154013BF1D2236806A901
:10112000D8680822FFF764FD23682749D86803229E
:10113000FFF75EFD254B7A221A70254B00221A60BC
:10114000244B1B7893422DD01B4B23491B68012253
:10115000D868FFF74DFD25E0111C3039C8B21C4B93
:10116000092804D81D682A01114319601AE0111CCE
:101170004139052903D81E68373A310106E0111CB0
:101180006139052904D81868573A01010A4308E073
:101190002C2A03D10A4A1968116001E00B490A7030
:1011A00000221A600D4B1A6801321A600C4B1A6843
:1011B0000132D5E5004000418C020020611600009C
:1011C0008802002065160000671600003402002027
:1011D00094020020880000206B16000040020020CE
:1011E0003002002010B51C4B01201A780324024362
:1011F0001A701A4B0F2219789143197019782143EC
:10120000197017490C782043087019780A401A7031
:101210001A7830210A431A70124B80211A6A0A4345
:101220001A62114B114A5A805A7852B2002AFBDBDB
:10123000C4220F480F499203FEF766FF0E4A0023AF
:1012400013700E4A13700E4A13700E4A13700E4A32
:1012500013700E4A137010BDD6440041BB440041C8
:10126000D744004100040040000C00401940000039
:10127000001C00422AF600009C02002023030020EC
:101280009D020020A0020020240300202103002052
:1012900008B5C1B20248FEF765FF012008BDC0468F
:1012A000001C0042024B187E4007C00F7047C0462A
:1012B000001C004208B5FFF7F5FF0028FBD00248EC
:1012C000FEF756FF08BDC046001C004208B5FFF7F8
:1012D000E9FF0023984205D0FFF7ECFF031C233BF6
:1012E0005A425341181C08BD70B5041C0D1C461809
:1012F000B44204D02078FFF7CBFF0134F8E7281C74
:1013000070BD10B5041CFFF7D5FF2070012010BD83
:101310000B0A5840034B4000C05A0902484080B2B3
:101320007047C0469E160000F7B50024051C0F1C30
:10133000261CBC4220D0FFF7BDFF114BC0B21B786A
:101340000190002B1AD1311CFFF7E2FF0D4B061C58
:101350001A88002A04D10C4A11782A1C002907D0C7
:1013600001996A1C2970802F02D1198801391980CE
:101370000134A4B2151CDCE7301C00E00120FEBDE6
:10138000210300209E02002022030020F0B53E4EE3
:1013900085B0002203900C1C32703C4B914201D16D
:1013A000012201E03A490C801A707F231C4201D0CF
:1013B00080349C43FFF77EFF3378C0B2002B07D008
:1013C00000253570FFF776FF3378C0B2AB4236D1D7
:1013D000432803D0712853D01528EBD10123009363
:1013E0000120FFF755FF0098FFF752FF0099802575
:1013F000C843C0B2FFF74CFF039B00270293244A67
:101400001388002B1DD1214901930978002918D197
:101410000198FFF73DFF391C0198FFF779FF013D67
:10142000071C002DEBD1000AC0B2FFF731FFF8B264
:10143000FFF72EFFFFF73EFF3378002B0AD0357001
:101440001FE00299013B09781380029B019101334F
:101450000293DDE7C0B2062807D1009B0399013350
:10146000DBB280310093803C0391002CB8D1042082
:10147000FFF70EFFFFF71EFF044B01251C7000E075
:101480000025281C05B0F0BD210300202203002008
:101490009E020020F0B5384C87B0002301902370E5
:1014A000994201D1012301E0344A1180344A642673
:1014B00013704320FFF7ECFE324FFFF7F3FE0028D6
:1014C00003D1002F03D0013FF7E7002F03D1013EE6
:1014D000002EEED14DE00125FFF7ECFE2378002B26
:1014E00038D1C0B20290012805D004283DD1062091
:1014F000FFF7CEFE39E005AE0221301CFFF714FFE6
:1015000001988021FFF710FF23780390002B18D15A
:10151000FFF7D0FE0702FFF7CDFEBFB223783F18DA
:10152000BFB2012B0DD0039B9F4207D13378AB4252
:1015300004D1EB437278DBB29A4204D01820FFF753
:10154000A7FE002303E00620FFF7A2FE029B2278FD
:10155000002A02D0002626700BE0012B05D1019A4B
:101560006B1C8032DDB20192B6E7054A002313708E
:101570000126301C07B0F0BD210300209E02002090
:101580002203002000350C0010B50023934203D045
:10159000CC5CC4540133F9E710BD031C821893429C
:1015A00002D019700133FAE770470023C25C01339F
:1015B000002AFBD1581E7047F8B5C046F8BC08BCDD
:1015C0009E467047F8B5C046F8BC08BC9E467047BA
:1015D0000403090441726475696E6F204C4C43002A
:1015E00041726475696E6F204E4F4E4120574C41D9
:1015F0004E0000001201000202000040412357008B
:1016000000020102000100000800000010000000BC
:1016100020000000400000008000000000010000E9
:10162000000200000004000091120000B51200004A
:10163000A5120000E9120000031300008D13000042
:10164000951400007600200041707220313920325C
:101650003031390031343A33383A343800580A0DD1
:1016600000590A0D005A00230A0D003E00322E30A8
:1016700000000000190B0000350B0000510B0000AA
:10168000750B0000910B0000750B0000B90B0000FA
:101690005B41726475696E6F3A58595A5D0000007B
:1016A0002110422063308440A550C660E770088155
:1016B00029914AA16BB18CC1ADD1CEE1EFF13112CC
:1016C000100273325222B5529442F772D6623993A5
:1016D00018837BB35AA3BDD39CC3FFF3DEE362241C
:1016E000433420040114E664C774A44485546AA5F5
:1016F0004BB528850995EEE5CFF5ACC58DD55336AC
:10170000722611163006D776F6669556B4465BB744
:101710007AA719973887DFF7FEE79DD7BCC7C4487B
:10172000E5588668A7784008611802282338CCC994
:10173000EDD98EE9AFF9488969990AA92BB9F55A0B
:10174000D44AB77A966A711A500A333A122AFDDBE4
:10175000DCCBBFFB9EEB799B588B3BBB1AABA66CDB
:10176000877CE44CC55C222C033C600C411CAEED34
:101770008FFDECCDCDDD2AAD0BBD688D499D977EEB
:10178000B66ED55EF44E133E322E511E700E9FFF84
:10179000BEEFDDDFFCCF1BBF3AAF599F788F88913A
:1017A000A981CAB1EBA10CD12DC14EF16FE180101E
:1017B000A100C230E3200450254046706760B98321
:1017C0009893FBA3DAB33DC31CD37FE35EF3B1026E
:1017D0009012F322D2323542145277625672EAB531
:1017E000CBA5A89589856EF54FE52CD50DC5E234BE
:1017F000C324A01481046674476424540544DBA701
:10180000FAB79987B8975FE77EF71DC73CD7D3260D
:10181000F2369106B01657667676154634564CD990
:101820006DC90EF92FE9C899E9898AB9ABA944585D
:10183000654806782768C018E1088238A3287DCB60
:101840005CDB3FEB1EFBF98BD89BBBAB9ABB754AAD
:10185000545A376A167AF10AD01AB32A923A2EFDF0
:101860000FED6CDD4DCDAABD8BADE89DC98D267CFD
:10187000076C645C454CA23C832CE01CC10C1FEF40
:101880003EFF5DCF7CDF9BAFBABFD98FF89F176E4D
:10189000367E554E745E932EB23ED10EF01E000081
:1018A0000000000001140000090243000201008052
:1018B00032090400000102020000052400100104A6
:1018C0002402000524060001052401000107058308
:1018D000030800FF09040100020A00000007058157
:1018E00002400000070502024000000000C20100A3
:1018F0000000080069000000410000000000000036
:10200000008000207D29000065290000652900006E
:1020100000000000000000000000000000000000C0
:102020000000000000000000000000006529000022
:10203000000000000000000065290000D129000018
:102040006529000065290000652900006529000058
:102050006529000065290000652900006929000044
:102060006529000065290000652900004521000060
:1020700035210000652900002521000065290000A8
:102080006529000065290000652900006529000018
:102090000000000065290000652900006529000096
:1020A00065290000652900006529000065290000F8
:1020B0000000000010B5064C2378002B07D1054B1B
:1020C000002B02D0044800E000BF0123237010BDA4
:1020D0009000002000000000F84B0000044B10B5F9
:1020E000002B03D00349044800E000BF10BDC046E8
:1020F0000000000094000020F84B0000704770477B
:1021000010B501211A2000F063FE01211A2000F011
:10211000ABFE01211B2000F05BFE00211B2000F024
:10212000A3FE10BD10B5024800F04DFB10BDC04627
:10213000AC00002010B5024800F045FB10BDC046C1
:10214000F002002010B5024800F03DFB10BDC04673
:1021500034050020F0B51F4985B01F4800F058F83D
:102160001E491F4800F054F81E4D1F49280000F07A
:102170004FF81E4E1E49300000F04AF81D491E4817
:1021800000F046F81D4F1E49380000F041F80124C8
:10219000032339000093019423000022194800F022
:1021A0008BFA00233100019300941D331E22164840
:1021B00000F082FA19230393013B0293163B01932B
:1021C0000094143317222900104800F031FA05B0AA
:1021D000F0BDC0460008004278070020000C004215
:1021E0008007002088070020001000429007002090
:1021F000001400420018004298070020A0070020A9
:10220000001C0042AC000020F00200203405002039
:1022100000230371016070479446F0B59E1E721E44
:1022200096416246056892072F6836063A43324364
:102230002A60072505AC24780068A40129402143C1
:1022400042680024022B00D05C031143214341600B
:10225000F0BD30B5C0250368AD031C6812052A40E7
:102260002243C0240904A4022140114319600368D9
:102270005A6814435C6030BD0123026811680B4347
:10228000136003681A68D207FCD4DA69D207F9D45C
:1022900070470223026811680B4313600268D36918
:1022A0009B07FCD470470268137E9B0702D4037916
:1022B000002BF9D1002303717047002203685A8371
:1022C00070470368187E4007C00F70470368187E88
:1022D000C0097047802302685B42117E0B4313766E
:1022E00070470368588B8007C00F7047022302684D
:1022F000518B0B43538370470368187EC007C00F90
:1023000070470368188DC0B2704703681A7ED20701
:10231000FCD589B219850123037118007047012289
:1023200003689A757047012203681A7570470000A8
:102330000368214A30B593422FD0204A93422FD0D0
:102340001F4A93422FD01F4A93422FD01E4A9342D6
:102350002FD01E4A93421FD10E231922012103259B
:1023600099401B48C024016099082B40AB40FC35C4
:102370009D4089000918A4000859A843C0259D4024
:102380002B0003430B518023DB011A43114B5A806E
:102390005A7852B2002AFBDB30BD09231422DDE754
:1023A0000A231522DAE70B231622D7E70C2317227C
:1023B000D4E70D231822D1E700080042000C0042A8
:1023C000001000420014004200180042001C0042AD
:1023D00000E100E0000C0040F8B504000F0016001A
:1023E0001D00FFF7A5FF2000FFF746FF1C21BB00E3
:1023F0000B4071072268090C0B4313608423226889
:102400009375012F1AD11021012E00D008390C4BE1
:1024100069431868C00002F037F8072221680240BB
:102420008B895203DB04DB0C13438B81226803048A
:102430009089DB0C400B400318439081F8BDC046E7
:10244000000000200120704710B50368014A1B6A94
:10245000984710BD13040000FC30006A70478723C2
:102460009B00C018C36880204000C01A704703005A
:10247000FC331A6A002A03D0DB69C018007D70475C
:1024800001204042FBE710B504000069FFF7F4FEAD
:1024900022000023FC329361D361136287229200F1
:1024A000A4186360A360E36010BD872310B59B0090
:1024B000C218D368002BFCD10069FFF7F4FE10BDF1
:1024C0000368002B02D162B6BFF36F8F7047F02014
:1024D00001403039484248417047F0231B01194000
:1024E000802306209B0099420AD00133FF3301303C
:1024F000994205D0802302385B00994200D0002029
:1025000070470F2001400020012903D00239481EE6
:102510008141481C704700008B23F0B5182685B018
:1025200002919B000400C05C330008214343324DFC
:102530001700EB18595600F0C3FC304B0821E05C43
:1025400033004343EB18595600F0BAFC2C4BE25CC5
:102550000393022A09D11133E05CFF2805D008213A
:102560004643AE19715600F0ABFC8C26B600A05D58
:10257000FF2819D0012100F02BFC1822A35D21496E
:102580005A43AB56AD18DB0158188D2189006050B5
:102590001D4901225B188E218900635069688A40B9
:1025A0008F21890062501A600122029B110020696C
:1025B000FFF712FF39002000FFF78FFF39000500F9
:1025C0002000FFF79EFF390006002000FFF77FFF85
:1025D00033000090290020690122FFF71DFE0B4BFC
:1025E0002069E25C039BE15CFFF733FE2069FFF7A3
:1025F00050FE05B0F0BDC046F04700002D020000BF
:102600002F02000018440041144400412E02000033
:10261000802210B504005200002102F002F82300CD
:102620000022FC335A6020009A60DA6010BD00007E
:10263000F0B585B01D000AAB1B78040000930BAB0E
:102640001B78160001930CAB1B780F0002930DABA7
:102650001B78039300234360FA239B008360124B93
:10266000083303601430FFF7D3FF20002130FF3020
:10267000FFF7CEFF8B236A469B002761E6540B4B86
:102680001278E5540A4B2000E2546A46094B12794D
:10269000E2546A46127A0133E2546A46127B1033DE
:1026A000E25405B0F0BDC046084B00002D0200000A
:1026B0002E0200002F020000F7B51D0008AB1B78AA
:1026C0000400009309AB1B781600019300234360BC
:1026D000FA239B008360114B0F0008330360143012
:1026E000FFF796FF20002130FF30FFF791FF8B238B
:1026F0006A469B002761E654094B1278E554094B62
:102700002000E2546A46084B1279E2548C22313B95
:10271000FF3B9200A3541032A354FEBD084B0000AF
:102720002D0200002E0200002F020000F7B5EFF38B
:10273000108300930123019372B680260200FF25C7
:10274000019BFC327600013B5C1C0FD0D4685F1EFD
:10275000B44209D054680155546801342C40546087
:10276000D4680134D460EEE73B00EDE7684601939E
:10277000FFF7A6FEF7BD13B5EFF310830093012317
:10278000019372B6019B5A1E0192002B15D00300D3
:10279000FC33DA68002A0DD09A68845C9A680132AA
:1027A000D2B29A60DA68013ADA606846FFF788FECA
:1027B000200016BD01246442F7E701246846FFF7B4
:1027C0007FFE6442F4E710B504000069FFF789FD5D
:1027D000002805D02069FFF794FD2069FFF786FDEA
:1027E0002069FFF76EFD00281BD02069FFF789FDE7
:1027F000010020001430FFF799FF8C239B00E35C5D
:10280000FF2B0ED02300FC331A6A80235B009B1A37
:10281000092B06DC8D238F229B009200E358A258DF
:102820001A602069FFF768FD00280ED087239B00FF
:10283000E318DB68002B14D020002130FF30FFF7B5
:102840009AFFC1B22069FFF760FD2069FFF73EFDE6
:10285000002805D02069FFF73DFD2069FFF72DFD19
:1028600010BD2069FFF75FFDEFE70000F8B5040039
:1028700000690D00FFF740FD87239B00E618002844
:1028800002D0F368002B34D001278022F368520075
:10289000934223D1EFF310833B4210D1174B5B6877
:1028A000DB05DB0DF1D0103B5BB2002B10DAF13A07
:1028B0001340083B9B08124A9B009B181B68206929
:1028C000FFF71AFD0028E0D02000FFF77CFFDCE7CF
:1028D0009B08C0330B4A9B009B58F0E72000213037
:1028E000FF302900FFF722FF2069FFF718FD0120C4
:1028F000F8BD29002069FFF708FDF8E700ED00E0CA
:102900001CED00E000E100E010B504001430FFF71A
:1029100032FF8C239B00E35CFF2B0ED02300FC33A3
:102920001A6A80235B009B1A0A2B06DD8E238F22F6
:102930009B009200E358A2581A6010BDF7B506003C
:102940000D000C008B180193019B671B9C4207D064
:10295000336821781B683000984701340028F3D190
:102960003800FEBDFEE70000034B10B51B68002BCE
:1029700000D0984710BDC046A807002070B50F4989
:102980000F4CA14204D100F0AFF800F08DF8FEE743
:102990000C4D00238D42F6D0CA18E818A24205D388
:1029A000094B8242EFD00949002204E00068043359
:1029B0001060F1E704C38B42FCD3E4E70000002081
:1029C00090000020FC4B000090000020E80D00204B
:1029D00010B500F066F8002801D100F057F810BDDE
:1029E000014B18607047C046A8070020014B1868CB
:1029F0007047C046AC070020F7B513480122844653
:102A00001249134C8E68636805689B0E134001924F
:102A100088686268019F920E3A4067463F68934219
:102A20000ED1BD420CD186420AD35B19FA25486803
:102A3000AD00861B07486B437043000DC018FEBDF8
:102A40003D0013000600E3E7AC07002010E000E0C3
:102A500000ED00E05555000070B5041E10D0FFF7E2
:102A6000CBFF050000F01CF8FFF7C6FF054B401B2D
:102A70009842F7D9FA23013C9B00ED18002CF3D1C2
:102A800070BDC046E70300007047000010B5034A60
:102A900013680133136000F085FA10BDAC07002005
:102AA000704700207047000010B500F0E7F801F013
:102AB00077FDFFF725FB0120FFF7CEFF084C200034
:102AC00001F0AEF9200000F0F1FBFFF717FBFFF774
:102AD00016FB044B002BFAD000E000BFF7E7C0461E
:102AE000D8070020000000001E22F0B550485149D0
:102AF0004368514D93431A00022313434360082354
:102B00008A691343FE228B612B68D2039B02134018
:102B10004A4A13434A4A936113000422DC68144270
:102B2000FCD00124474A14701678264203D0567808
:102B300076B2002EF8DB01249460547864B2002C45
:102B4000FBDB414C5460547864B2002CFBDB8224E4
:102B5000E4015480547864B2002CFBDB02249C8492
:102B60000E34DE682642FCD0384CDC621024DE686D
:102B70002642FCD02C68A40E3F2C00D1203C9E6A3B
:102B8000334FA4023E4034439C629C6A314EA40AF7
:102B9000A40234439C62304CDC6200249C841034D8
:102BA000DE682642FCD02D4C9C841024DE68264230
:102BB000FCD002249E8C34439C841024DE68264280
:102BC000FCD000249460547864B2002CFBDB244CCD
:102BD0005460547864B2002CFBDB1C6A214E3440F4
:102BE00080261C621C6AB4431C62032393601E4B44
:102BF000536053785BB2002BFBDB0023FF240B7286
:102C00001A4A4B728B72CB72194B1A60194A2B6895
:102C100011689A065B01C90E2340520F12020B4342
:102C20001343154A13858023426813434360F0BD64
:102C300000400041000400402460800006060000BF
:102C400000080040000C004001040100B905FF7DB0
:102C5000FF03FFFFFF01000080BB0A1C24050000EA
:102C600000070300FFFCFFFF03060100006CDC020D
:102C7000000000202060800000400042FA21314B1B
:102C800010B51868890001F0FFFB2F4B01389842FE
:102C900056D82E492E4A4860C020136A00061B02EF
:102CA0001B0A03431362002407238C600B608021FE
:102CB000136A09061B021B0A0B431362FC22254BF5
:102CC000196A0A431A62FC22196A92010A431A62BB
:102CD000A022196AD2020A431A62E0B2002101342A
:102CE00000F076F81F2CF8D11B4B1C005A7852B21A
:102CF000002AFBDB194A5A80194B1A00597EC90970
:102D00000129FBD0E421C90099803F21D970537E6D
:102D1000DB09012BFBD0C02300205B011361907005
:102D200000F024F863785BB2002BFBDB0D4B0E4AFE
:102D30006380D379DB09012BFBD04123537010BD95
:102D4000FEE7C04600000020FFFFFF0010E000E0AB
:102D500000ED00E000040040000C00401E400000B8
:102D6000004000422140000000480042164A00B5E1
:102D70001300517EC9090129FBD00138042816D857
:102D80001969124A0A400F211A615A788A4301F0E0
:102D900071FB0308060B0300110001220A435A705D
:102DA00000BD11000322F9E711000222F6E7F0232B
:102DB00011691B050B430F21136153788B431900D5
:102DC00002230B435370EBE700400042FFFFFFF08C
:102DD000182330B51D00040045430820204A55192A
:102DE0002856013014D0032912D808006343D15665
:102DF000D31801F03FFB02280E1B5868CB010221BB
:102E0000184A9B181A1840321170012282405A60E9
:102E100030BD5868CB010621124A9B181A1840325F
:102E20001170012282405A609A61F1E75868CB0123
:102E300006210C4A9B181A18403211700122824058
:102E40005A605A61E4E75868CB010221054A9B1891
:102E50001A1840321170012282409A60D8E7C046A9
:102E6000F0470000004400411823F0B508245843FF
:102E7000114A13181C5701341BD0012635005F6816
:102E80008356BD400D4ADB019A18906805420BD16C
:102E90000C00601E8441D219403210783440033651
:102EA000A400B04320431070044A9B18002901D1AC
:102EB0005D61F0BD9D61FCE7F0470000004400410A
:102EC00018224243F8B52C4E0300B218127A52B2BF
:102ED000140001320ED0481C00240C280AD801F03E
:102EE000C9FA0720202020202020200B0B0B0B00EC
:102EF000012464422000F8BD092905D10021D8B27F
:102F0000FFF766FF0024F5E70A2902D1D8B2083995
:102F1000F6E700240B29EDD1D8B20A39FFF758FFA4
:102F2000E8E718204343F2185568F3562C00134A7B
:102F3000DB016E0817389B18C9B204409E19002C9B
:102F40000DD00F2430363278090122401143C9B226
:102F50005B19317040331A7810431870D2E7320091
:102F60000F27303216785B19BE433143117040335E
:102F70001A7810431870BDE7F04700000044004184
:102F800010B50400FFF780FD014B1C6010BDC0466A
:102F9000040000200122024B52421A607047C046D2
:102FA00004000020164A10B51368591C26D0013BB6
:102FB0001360002B22D172B6124B134A0433934292
:102FC00013D9124A01211000147D0C42FCD020219B
:102FD000148BFF319B085B0021431183D3610C4BA1
:102FE00013800123027D1A42FCD0BFF34F8F094B9F
:102FF000094ADA60BFF34F8FC046FDE710BDC046F7
:1030000004000020002000000302000000400041F6
:1030100002A5FFFF00ED00E00400FA05704710B5BF
:10302000040001F033F8200010BD0000F0B5822943
:1030300019D1C3B2294D5A01AA189169284C8001AF
:103040000C40C0218905214391612649083340186D
:103050007021506128685B011A5C8A43110030229C
:103060000A431A54F0BD0029FCD1C026C1B21B4C42
:103070004B01E3189A681A4DB6052A4032439A600C
:10308000194A800182185A600A000727246808320A
:103090005201115DB9430F000121394311559F6958
:1030A00010493D4040182E439E6158617020115DCB
:1030B0008143080010210143115599680B48A2185B
:1030C000084080214903014399609968890B89036D
:1030D0009960402311790B431371C3E7900C0020D2
:1030E000FFFFFF8F04080020C4090020FF3F00F00D
:1030F000EFF3108303600123436072B6704773B52A
:10310000836D0400002B1BD10600A8363578684675
:10311000FFF7EEFF019BEDB2013B02D33578EDB234
:10312000FAE768460193FFF7CBF9002D01D10020A3
:1031300076BD2300A4331868A0342368C01AF7E7CB
:103140006846FFF7D5FF22000025019BF432013BC2
:1031500002D31578EDB2FAE768460193FFF7B0F9AC
:10316000002DE4D02300F0331868EC34E5E70000CC
:1031700010B5436D4468DBB25A01A2189168094842
:1031800008330840802149030143916091685B0145
:10319000890B890391602268D318402219790A4368
:1031A0001A7110BDFF3F00F0F7B5436D4268DBB206
:1031B000190004000831106849014118C979C9078C
:1031C00011D55B01D21893689B049B0C0CD1200095
:1031D000FFF7CEFF63681A68636DDBB208335B01EB
:1031E000D3187F22DA71F7BDE16D002923D12100C8
:1031F000A4310B6023000125AC33E56568465360BC
:10320000FFF776FF260020002100019BA836013B36
:10321000F430F5315A1C33D0357002785F1ED2B2CB
:103220000A700A78002A04D120000193FFF7A0FF5A
:10323000E8E73B00EEE72100F0310B600023E36597
:103240002300603353606846FFF752FF01252600D4
:1032500020002100019BF436013BA830F5315A1CB7
:103260000ED0357002785F1ED2B20A700A78002A3A
:1032700004D120000193FFF77BFFE8E73B00EEE776
:1032800068460193FFF71CF9A4E737B56B46DC1DD0
:1032900000230D00237000F0E3FE210000F06EFE1D
:1032A0002B681818286020783EBD000000780028A0
:1032B00010D00121084B1B681A898A431A81082201
:1032C000198B0A431A830422198B0A431A8300229A
:1032D000024B1A607047C046900C0020880C0020FA
:1032E00010B50F4A93699B0B9B03936113680222ED
:1032F000FF331A729879823A02439A711A7A9207C6
:10330000FCD57F24074A2140937A0800A343190083
:10331000802301439172917A5B420B43937210BDFB
:10332000900C00200050004110B50C0000F098FEF9
:10333000210000F056FE002804D1034A93699B0B3C
:103340009B03936110BDC046900C0020F8B50D00A2
:10335000832A19D1CBB23B4C5A01A21891693A4841
:10336000AD010840C02189050143916137492068BA
:103370006D187021083355615B011A5C8A43110096
:1033800040220A431A54F8BD022A55D1304A8B0014
:103390009858002802D003685B699847F82000F02D
:1033A00071FE0400274E2B4B466003604022002133
:1033B000083001F036F922000023A032A3646565CD
:1033C000E3642365A365E3655360D36413721360FC
:1033D00013654C3213725372FF222B0013405901B4
:1033E00071188868184F08330740C020800538439B
:1033F0008860306807265B01195CAD00B1430E00A0
:103400000321314319542300616D60681140490163
:10341000411860334B60616D63680A401B6852015C
:103420009B180122FF33997A20000A439A72FFF712
:103430009FFE074B5C51A6E711002800FFF7F6FD41
:10344000A1E7C046900C0020FFFFFF8F040800207A
:10345000DC070020444B000070B505000124064B3A
:10346000A200D258002A06D0210028000134FFF71C
:103470006DFF0A2CF3D170BDB00700200B4BCAB210
:103480000B488901C9185301C31859619969083259
:10349000890B89039961036852019A180223D37139
:1034A0005179823B0B4353717047C046040800209A
:1034B000900C0020084B8A00D05810B5002803D08B
:1034C00003689B68984710BDC9B2044B490159185D
:1034D00088688004800CF6E7DC070020900C002050
:1034E00010B50C00FFF7E6FF00280CD0064BE4B245
:1034F0001B68083464011C19802362795B42134302
:1035000063710223E37110BD900C0020F0B51C0024
:103510002A4B85B01B6807000D000292002B4AD091
:10352000274B8A00D058002808D0036822005B6827
:10353000029998470400200005B0F0BD3800FFF75D
:10354000B9FF844204D929003800FFF7B3FF040013
:103550000121EBB21B4E03935B010193F2189368B8
:103560009B0B9B039360019A336802989B18FF336F
:103570005A7A0A435A72144BA901C918220001F061
:1035800047F8002CD7D029003800FFF793FF002818
:10359000D1D14021039B326808335B01D3181879DD
:1035A000014319710121D971019BD318FF339A7A14
:1035B0000A439A72BFE701246442BCE7880C0020EA
:1035C000DC070020900C0020C409002013B56B46D6
:1035D000DC1D22000123FFF799FF012801D120788B
:1035E00016BD01204042FBE770B5CBB2124A13482A
:1035F0005C0189018918021951609168104D0833E6
:103600000D40802149032943402591609168890B31
:103610008903916001685A018A181679354315713A
:1036200095796D06FCD55B01C918CB79DB07FCD514
:1036300000198068C0B270BDC4090020900C002041
:10364000FF3F00F070B50D0000211400FFF7CCFF24
:10365000A04200D9200000230349A34203D0CA5C42
:10366000EA540133F9E770BDC4090020F0B51E002B
:103670003A4B85B01B680F000192002B35D0802398
:10368000DB019E4231D80025354B8A01D3180293C5
:10369000002E2CD0334B1B680393FF233B401C00B0
:1036A00000930834039B64011C19A379DB0921D022
:1036B0002D4B2E49186800F0E7FE2D4B172158437B
:1036C00000F0E2FE2B4BE279920713D4DA5D002A78
:1036D00001D10138F7D20122DA55009B5A01214B62
:1036E0009B189A69920B92039A6101256D422800FA
:1036F00005B0F0BD00221F4B3400DA553F2E09D92A
:10370000009B40245A01174B9B188022996912068E
:103710000A439A6122000199029800F079FF009B08
:10372000A1045A010F4B890C9B18029A2D195A615A
:103730009A69361B920B92030A439A61009B039A83
:1037400008335B01D3180222DA715979823A0A43AD
:103750005A71019B1B1901939AE7C046880C0020FF
:1037600004080020900C00200000002040420F00C0
:1037700070110100F907002070B50D001C000D4B01
:10378000AE01F61811003000220000F041FFEDB24A
:1037900009496D014D196E61AB69084A200013405B
:1037A000AB61AB69A2049B0B920C9B031343AB610F
:1037B00070BDC04604080020900C0020FF3F00F0C0
:1037C000F7B5104B01901B780F001500002B0CD1A2
:1037D0000D4B16001C78002C09D00C4E0C48348878
:1037E0002018641900F014FF34802800FEBD002E5C
:1037F000FBD03A19330000210198FFF7BDFF2418D0
:10380000361AF4E7840B0020850C0020860C00207B
:10381000850B0020F8B50F0016000024012A26D9D8
:10382000100000F0E1FE0500380000F0BDFF0323AA
:1038300002220130400028706B7096420DD9397811
:1038400000290AD0531CDBB20137A9549E4203D091
:103850000232EC54D2B2F0E7320029000548FFF7FB
:10386000AFFF441EA041C4B2280000F0C7FE2000F4
:10387000F8BDC046D8070020F0B50024012685B069
:10388000184B0F0069461E7005000094FFF7FDFC01
:10389000154B01A90B806A3BFF3BCB715A330B726E
:1038A000009B8C7109334B800E4B4E7108711C705C
:1038B0003A00092F0FD00D4F09223E700C4E280000
:1038C00000943480FFF77CFF69462800FFF7DDFC99
:1038D000328808493C702800FFF772FF012005B0CC
:1038E000F0BDC046840B002009020000850C0020BA
:1038F000860C0020850B002070B5CE7892B00500B4
:103900000C00022E0BD18B79C9792C48090219437E
:10391000FFF7B2FF411E8841C0B212B070BD00F087
:103920009FFB210000F03EFB002803D0C117081ABE
:10393000C00FF2E7012E0ED1E279A37912021A43E9
:103940001F49112A13D8D2B2002A10D02800FFF73D
:1039500037FF0120E1E7032EDFD1A378002B08D148
:10396000E279A37912021A431649032AEBD90A789D
:10397000ECE7022B08D1E279A379120212491A432B
:103980002800FFF747FFC8E7012B05D1E279A379AB
:1039900012021A430D49F3E7032BBED14122010065
:1039A00001A800F03EFE00F05BFB01A900F00AFB5D
:1039B000E279A37912021A4301A9E1E7D8070020AE
:1039C000844B0000744B0000604B0000784B0000FB
:1039D000CBB204495B01C9188B699B0B9B038B61BC
:1039E0007047C046900C002037B5050048780C00A1
:1039F0000B2810D800F03EFD061B0F2B0F40456131
:103A0000494C5A5D097801AA002906D10223118088
:103A10002800FFF7B1FE01203EBD00231380284B94
:103A20001B78012B00D1137002230021F0E78A7864
:103A30000023012A03D101AA1380224BF0E7204A78
:103A40001370214A93699B0B9B039361E3E78C7886
:103A5000012C06D100211B4B01AA1C701170230000
:103A6000D6E70120002CD7D1154B174A187093695F
:103A70009B0B9B039361CFE789782800FFF730FC0D
:103A8000C9E72800FFF738FFC6E701230F4ACCE754
:103A90000B780020DB06BFD12800FFF7DDFCA27801
:103AA0000A4B0B481A6000F0C3FCCAE70123094A1D
:103AB000BBE78A78074B1A60C3E70020ACE7C04633
:103AC000F807002000080020900C0020880C00203F
:103AD000A40D00208C0C00203A4BF7B51E78050091
:103AE000002E5FD1384C23689A8B12070DD508221F
:103AF00031009A833000FFF799FA10222368FF33D0
:103B0000997A0A439A72314B1E6023689A8B520746
:103B100001D504229A83FF331A7A920603D5202214
:103B2000597A0A435A721A7AD20623D5694608008E
:103B3000274AC0CAC0C0A268920B9203A26040226A
:103B4000587902435A7160230A7828001A422AD110
:103B5000FFF74AFF2368FF33002827D08022997996
:103B600052420A439A711A7A520603D54022597A70
:103B70000A435A727F2601252368FF331E722F00E5
:103B8000236808377F01DB19DB79002B07D0114B45
:103B9000AA00D05800280DD003681B68984701354B
:103BA000082DECD1F7BDFFF7BFFBD3E720210A4A70
:103BB0009171D8E72900094800F010FC2368DF194B
:103BC000FE71ECE7850C0020900C0020880C002092
:103BD000C4090020DC070020FF500041A40D002094
:103BE00010B50248FFF778FF10BDC046D807002087
:103BF00080235B0003800023436007330372704718
:103C000083000148C0187047B0070020836C402B28
:103C100009D03F22036CC154036C01331340036489
:103C2000836C013383647047F7B505006846FFF77E
:103C30005FFA00264022019B013B02D32E6D961BAA
:103C4000FAE768460193FEF73BFCAB6D6846002B34
:103C50004FD1FFF74DFA2900019BA831013B5A1CB7
:103C60000CD00C785A1EE4B2002C05D168460193A2
:103C7000FEF726FC2000FEBD1300F0E76846019326
:103C80000024FEF71DFC2A002900A0321368A4318D
:103C9000B4420ED0086898420BD92800591CEB1882
:103CA0001160603319780830C9B2FFF7AFFF0134F3
:103CB000E9E709689942DDD1002313600133AB6560
:103CC0006846FFF715FA2F002A000021019BA8374C
:103CD000013BF532581CC9D0397010785E1E00289F
:103CE00005D0117028000193FFF742FAEBE733008B
:103CF000F0E7FFF7FDF92900019BF431013B5A1C65
:103D000006D00C785A1EE4B2002CAFD01300F6E7B0
:103D1000684601930024FEF7D3FB2A002900EC3209
:103D20001368F031B44202D0086898421DD809687F
:103D300099429FD1002368461360AB65FFF7D8F91D
:103D40002F002A000021019BF437013BF532581C5B
:103D500000D18BE7397010785E1E002811D01170E9
:103D600028000193FFF704FAEAE72800591CEB1832
:103D70001160AC3319780830C9B2FFF747FF01343E
:103D8000CBE73300E3E710B50400FFF74DFF206DEC
:103D900010BD10B50400FFF747FF236D002B03D0C3
:103DA000E36CE418207A10BD01204042FBE7F7B530
:103DB00017000E000400FFF737FF6846FFF798F979
:103DC0003F2200259446019B013B5A1C19D0BD425D
:103DD00015D2226D002A12D00121226D4942002AFB
:103DE0000AD06046E26CA218117AE26C01320240FD
:103DF000E264226D013A226571550135E7E7013B26
:103E0000E3E768460193FEF75BFB2800FEBD000078
:103E1000014B024A1A607047900C0020005000418C
:103E20002023F7B5474A0500D1690F200B43D36122
:103E3000012245490B7813430B70444B1978814399
:103E4000197006211C782143197041490C782243CE
:103E50000A701A7802401A70602219780A431A70A0
:103E60003C4B3D4A5A805F78FF09FCD13B48FEF746
:103E7000B7FD01233A4C3B4E2268300011780B43CA
:103E8000137080223900520000F0CBFB2268937837
:103E9000DB07FCD456621F26334B1B68590B980C6A
:103EA0009B01314030405B0FB14200D105211F28FA
:103EB00000D10238072B00D1043B31408901178D16
:103EC00001912A4930400F40019939431185118DE4
:103ED0000700B143080038431085118D1803244BA7
:103EE0007F260B4003430C2013850823D1788143A0
:103EF0000B430321D3702268D3788B4301390B43E2
:103F0000D370226813783340137004232268167824
:103F1000334313702268C1241389A40083431548D6
:103F2000138103591B021B0A03518023036013787A
:103F300011481943012311702B70002100F0E8F89B
:103F4000F7BDC04600040040584400413C440041D5
:103F500059440041000C004006400000E13B0000D5
:103F6000900C0020940C0020246080003FF8FFFF9C
:103F7000FF8FFFFF00E100E0A40D002070B50E00F0
:103F800000254468002C0BD0236831005B682000BA
:103F90009847002802DB2D18E468F3E701256D42FD
:103FA000280070BD70B50D004468002C08D023684F
:103FB00029009B6820009847002802D1E468F4E7B4
:103FC000200070BD70B50D004468002C07D0236838
:103FD00029002000DB689847E4682D18F5E72C706D
:103FE00070BD70B50D004468002C08D0236829000E
:103FF0001B6820009847002802D1E468F4E72000FD
:1040000070BDF8B542788B790D00017A9B180400D9
:1040100000208B4222DC6368834219D16560002650
:1040200023786A71EA792B719B182370AB79B342BC
:1040300013D9AB68B7006078DF19FFF7E1FD3B6883
:10404000013603606378F6B201336370EEE70B006C
:10405000D9680029FBD1DD60E1E70120F8BD00004F
:1040600070B50126054D064C2B68334203D1200064
:10407000FFF7BEFD2E60200070BDC046940D0020ED
:10408000980D002010B500F0AFFA10BD10B500F08B
:10409000B5FA10BD0020704770B50F26CB1D013951
:1040A00002003240D5B22C0000093034092A00DD6C
:1040B00007341C70013B8B42F2D170BD10B50C006F
:1040C0000B4B1868FFF7E8FF21000A4B083118680E
:1040D000FFF7E2FF2100084B10311868FFF7DCFF03
:1040E0002100064B18311868FFF7D6FF202010BDBD
:1040F0000CA0800040A0800044A0800048A0800068
:1041000008B4024B9C46103808BC6047BD40000014
:10411000704770473F20704713B56B460268D971EE
:104120000733546819000122A04716BD70B50A264E
:104130000B7892B06E44023305000B703C220021D4
:10414000300000F06EFA394801AC0690384824215E
:104150000790062020776846364AA1742281364AA5
:10416000364BA281FD3AFF3A8018C1776846233961
:104170000630C17768460730C17702A8C1770720AB
:10418000F277032608316944C87703A9CE77102156
:104190002B366E443170092621851F3169440E701B
:1041A0000CA9053E0E7033212380022369440B7055
:1041B00006360DA90E7022493536A1863B216E4484
:1041C000307010A86274E27702703D3269446A442C
:1041D0000B70137040210022E37023716371A3738D
:1041E00041336B44218719705A702B7DC039A370FD
:1041F000A37263770133DBB2A3776A7D0B200D00D6
:1042000068441543C5773120684403703A23501C35
:104210006B441870412302320A436B441A70210028
:1042200042220848FFF7CCFA12B070BD10010424F6
:10423000020605240904000001020000080B00002A
:1042400007050000D807002008B4024B9C46103830
:1042500008BC60472D41000070B5027D0B790C0051
:1042600000259A420BD10B784E78A12B09D1212E33
:1042700005D107221B491C48FFF7A2FA0135280087
:1042800070BD212BFBD1202E22D1072215491648C3
:10429000FFF7D8F99622134BD200196891421DD12D
:1042A000DB79DB071AD4FA20FEF76AFE00210E48FC
:1042B000FFF78EFB0125232EE1D1E378A2781B02C4
:1042C00013430A4A002108481360FFF781FBD6E731
:1042D000222EEFD18A78034BDA71DBE7FEF75AFE24
:1042E000E4E7C0460C000020D807002008000020AA
:1042F00008B4024B9C46103808BC60475942000085
:1043000010B508220021024800F08BF910BDC0460C
:104310000C00002010B5417D006A0131FFF7CAF89A
:10432000034B1B6801335A1E9341181810BDC04639
:104330001400002010B5417D006A0231FFF7D0F86B
:1043400010BD10B5417D006A0231FFF797F810BD2E
:1043500070B50D00417D0400130002312A00006A8F
:10436000FFF784F9002801D10123636070BD0000CC
:1043700010B5054C23685A1C04D103685B69984743
:1043800003002060180010BD14000020074A03003D
:10439000106810B5411C03D001235B42136010BDAF
:1043A000597D186A0131FFF711F9F8E71400002070
:1043B00010B5FEF71BFBF423FF330024984207D906
:1043C000044B0A20DC79631E9C41E4B2FEF744FBF7
:1043D000200010BD0C000020002070477047000036
:1043E000FA239B0010B583600F4B0022C3820300A9
:1043F000283383610D4B04004260C26118005033C2
:1044000023610830631D21622060DA778323A36271
:10441000813BE36280332363FFF722FE21001031EA
:10442000FFF7EFFD200010BD03020000984B0000D5
:10443000022110B5094B1A68437D5B01D318FF3385
:104440009C7A21439972437D0133DBB25B01D3181F
:104450000122FF33997A0A439A7210BD900C002012
:1044600010B502490248FFF7BBFF10BDD807002076
:10447000A40D002002B4714649084900095C4900B6
:104480008E4402BC7047C046002243088B4274D35E
:1044900003098B425FD3030A8B4244D3030B8B4245
:1044A00028D3030C8B420DD3FF22090212BA030C4E
:1044B0008B4202D31212090265D0030B8B4219D32F
:1044C00000E0090AC30B8B4201D3CB03C01A52414F
:1044D000830B8B4201D38B03C01A5241430B8B4297
:1044E00001D34B03C01A5241030B8B4201D30B0380
:1044F000C01A5241C30A8B4201D3CB02C01A5241A7
:10450000830A8B4201D38B02C01A5241430A8B4269
:1045100001D34B02C01A5241030A8B4201D30B0252
:10452000C01A5241CDD2C3098B4201D3CB01C01A6C
:10453000524183098B4201D38B01C01A5241430976
:104540008B4201D34B01C01A524103098B4201D364
:104550000B01C01A5241C3088B4201D3CB00C01AD1
:10456000524183088B4201D38B00C01A5241430849
:104570008B4201D34B00C01A5241411A00D201466E
:10458000524110467047FFE701B5002000F006F8E1
:1045900002BDC0460029F7D076E770477047C04695
:1045A00070B500260C4D0D4C641BA410A64209D119
:1045B000002600F011F90A4D0A4C641BA410A64213
:1045C00005D170BDB300EB5898470136EEE7B30054
:1045D000EB5898470136F2E77C0000207C00002071
:1045E0007C0000208C00002010B5034B01001868EF
:1045F00000F06AF810BDC0461800002010B5034B4B
:104600000100186800F016F810BDC0461800002020
:10461000002310B59A4200D110BDCC5CC4540133C4
:10462000F8E703001218934200D170471970013364
:10463000F9E7000070B50500002910D00C1F2368B1
:10464000002B00DAE418280000F0B5F81D4A1368C2
:10465000002B05D163601460280000F0ADF870BD38
:10466000A34209D9216860188342F3D118685B68B6
:1046700041182160EEE713005A68002A01D0A242D7
:10468000F9D919685818A0420BD120680918581890
:1046900019608242E0D110685268411819605A606E
:1046A000DAE7A04202D90C232B60D5E72168601815
:1046B000824203D1106852684118216062605C60D8
:1046C000CAE7C046D80D0020032370B5CD1C9D431A
:1046D000083506000C2D1ED20C25A9421DD830002D
:1046E00000F069F8254A14682100002919D1244CEA
:1046F0002368002B03D1300000F044F8206029002B
:10470000300000F03FF8431C2BD10C233000336005
:1047100000F052F803E0002DDFDA0C2333600020B4
:1047200070BD0B685B1B19D40B2B03D90B60CC1825
:10473000256003E04B688C420DD11360300000F01F
:104740003BF8200007220B30231D9043C31AE7D00B
:104750005A42E250E4E763600C00EFE70C0049685E
:10476000C3E70323C41C9C43A042E1D0211A3000BC
:1047700000F008F8431CDBD1C7E7C046D80D002085
:10478000DC0D0020002370B5064C050008002360F6
:1047900000F014F8431C03D12368002B00D02B60D9
:1047A00070BDC046E40D00200023C25C0133002A26
:1047B000FBD1581E7047704770470000044A1368C9
:1047C000002B00D1034B1818106018007047C0462A
:1047D000E00D0020E80D0020F8B5C046F8BC08BC8C
:1047E0009E467047F8B5C046F8BC08BC9E46704768
:1047F000010000001700000003000000040000009A
:10480000FF00FFFFFFFFFF00010000001600000097
:104810000300000004000000FF00FFFFFFFFFF0097
:10482000010000000A000000080000001C00000059
:10483000FF00000500050A00010000000B00000059
:10484000080000001C000000FF00010501050B002E
:104850000000000007000000080000001C0000002D
:10486000070001010101FF00000000000500000039
:10487000080000001C000000050001000100FF000E
:104880000000000004000000080000001C00000000
:10489000040000000000FF0000000000060000000F
:1048A00008000000040000000600FFFFFFFFFF00FB
:1048B00000000000120000000800000004000000DA
:1048C000FF00FFFFFFFFFF000000000014000000DA
:1048D000080000002C000000FF000200020004009D
:1048E0000000000015000000080000002C0000007F
:1048F000FF0003000300050000000000100000009E
:10490000020000001C000000FF0000020002000086
:104910000000000013000000020000001C00000066
:10492000FF0001030103FF00000000001100000070
:104930000200000004000000FF00FFFFFFFF010075
:10494000000000000200000001000000060000005E
:104950000000FFFFFFFFFF00010000000200000059
:1049600001000000040000000A00FFFFFFFF02003A
:10497000000000000B000000010000002C000000FF
:10498000130003000300FF00000000000A00000005
:10499000010000002C000000120002000200FF00D5
:1049A00001000000080000000300000006000000F5
:1049B0000200FFFFFFFFFF000100000009000000F0
:1049C00003000000180000000300010401040900B6
:1049D00000000000090000000100000004000000C9
:1049E0001100FFFFFFFFFF000100000003000000B7
:1049F00001000000040000000B00FFFFFFFF0300A8
:104A0000000000000C000000020000000000000098
:104A1000FF00FFFFFFFFFF00000000000D0000008F
:104A20000200000000000000FF00FFFFFFFFFF008A
:104A3000000000000E000000080000000000000060
:104A4000FF00FFFFFFFFFF00000000000F0000005D
:104A50000200000000000000FF00FFFFFFFFFF005A
:104A6000000000001B000000080000000000000023
:104A7000FF00FFFFFFFF0F00000000000800000024
:104A80000800000004000000FF00FFFFFFFFFF0020
:104A9000000000001C0000000800000004000000EE
:104AA000FF00FFFFFFFFFF000000000016000000F6
:104AB000020000001C000000FF00000400040600CB
:104AC0000000000017000000020000001C000000B1
:104AD000FF000104010407000000000018000000AE
:104AE0000600000000000000FF00FFFFFFFFFF00C6
:104AF0000000000019000000060000000000000097
:104B0000FF00FFFFFFFFFF000000000000000000AB
:104B10006D2800003D2900005F240000AB24000048
:104B200059240000092900006F24000049240000D6
:104B30001925000087240000452400000000000023
:104B400000000000A9310000AF3D0000873D0000DB
:104B5000933D00001D3000001F300000FF300000BA
:104B600041726475696E6F204E414E4F2033332081
:104B7000496F54000403090441726475696E6F2023
:104B80004C4C430012010002EF02014041235780C8
:104B9000000101020301000000000000000000000D
:104BA0001941000051430000154100003543000049
:104BB000154300008D4300007143000011410000C7
:104BC0001341000001430000B143000043430000D3
:104BD0002D4100009540000059420000BD400000FA
:104BE000F0FFFFFF00000000F1420000494200001A
:104BF000D9430000014100000000000040420F00C6
:104C0000FFFFFFFFFFFFFFFF00C2010000000800E1
:104C1000FFFFFFFF1C00002000000000000000005C
:104C20000000000000000000000000000000000084
:104C30000000000000000000000000000000000074
:104C40000000000000000000000000000000000064
:104C50000000000000000000000000000000000054
:104C60000000000000000000000000000000000044
:104C70000000000000000000DD20000055210000C1
:0C4C8000113E000061440000B52000005F
:00000001FF
